{
  "contractName": "VacSeen",
  "abi": [
    {
      "inputs": [],
      "payable": false,
      "stateMutability": "nonpayable",
      "type": "constructor"
    },
    {
      "constant": true,
      "inputs": [
        {
          "internalType": "uint256",
          "name": "",
          "type": "uint256"
        }
      ],
      "name": "Appointments",
      "outputs": [
        {
          "internalType": "uint256",
          "name": "id",
          "type": "uint256"
        },
        {
          "internalType": "string",
          "name": "date",
          "type": "string"
        },
        {
          "internalType": "address",
          "name": "citizen",
          "type": "address"
        },
        {
          "internalType": "uint256",
          "name": "citizenId",
          "type": "uint256"
        },
        {
          "internalType": "address payable",
          "name": "hospital",
          "type": "address"
        },
        {
          "internalType": "uint256",
          "name": "hospitalId",
          "type": "uint256"
        },
        {
          "internalType": "string",
          "name": "vaccine",
          "type": "string"
        },
        {
          "internalType": "uint256",
          "name": "doseCount",
          "type": "uint256"
        },
        {
          "internalType": "bool",
          "name": "vaccinated",
          "type": "bool"
        }
      ],
      "payable": false,
      "stateMutability": "view",
      "type": "function"
    },
    {
      "constant": true,
      "inputs": [
        {
          "internalType": "uint256",
          "name": "",
          "type": "uint256"
        }
      ],
      "name": "Citizens",
      "outputs": [
        {
          "internalType": "uint256",
          "name": "id",
          "type": "uint256"
        },
        {
          "internalType": "string",
          "name": "name",
          "type": "string"
        },
        {
          "internalType": "address",
          "name": "publicAddress",
          "type": "address"
        },
        {
          "internalType": "string",
          "name": "vaccine",
          "type": "string"
        },
        {
          "internalType": "bool",
          "name": "vaccinated",
          "type": "bool"
        },
        {
          "internalType": "uint256",
          "name": "doses",
          "type": "uint256"
        },
        {
          "internalType": "bool",
          "name": "isCreated",
          "type": "bool"
        }
      ],
      "payable": false,
      "stateMutability": "view",
      "type": "function"
    },
    {
      "constant": true,
      "inputs": [
        {
          "internalType": "address",
          "name": "",
          "type": "address"
        }
      ],
      "name": "CitizensAddress",
      "outputs": [
        {
          "internalType": "uint256",
          "name": "id",
          "type": "uint256"
        },
        {
          "internalType": "string",
          "name": "name",
          "type": "string"
        },
        {
          "internalType": "address",
          "name": "publicAddress",
          "type": "address"
        },
        {
          "internalType": "string",
          "name": "vaccine",
          "type": "string"
        },
        {
          "internalType": "bool",
          "name": "vaccinated",
          "type": "bool"
        },
        {
          "internalType": "uint256",
          "name": "doses",
          "type": "uint256"
        },
        {
          "internalType": "bool",
          "name": "isCreated",
          "type": "bool"
        }
      ],
      "payable": false,
      "stateMutability": "view",
      "type": "function"
    },
    {
      "constant": true,
      "inputs": [
        {
          "internalType": "address",
          "name": "",
          "type": "address"
        }
      ],
      "name": "Hospitals",
      "outputs": [
        {
          "internalType": "uint256",
          "name": "id",
          "type": "uint256"
        },
        {
          "internalType": "string",
          "name": "name",
          "type": "string"
        },
        {
          "internalType": "address payable",
          "name": "owner",
          "type": "address"
        },
        {
          "internalType": "bool",
          "name": "isValidated",
          "type": "bool"
        },
        {
          "internalType": "string",
          "name": "vaccine",
          "type": "string"
        },
        {
          "internalType": "uint256",
          "name": "stock",
          "type": "uint256"
        },
        {
          "internalType": "uint256",
          "name": "nabhID",
          "type": "uint256"
        },
        {
          "internalType": "uint256",
          "name": "doseCost",
          "type": "uint256"
        }
      ],
      "payable": false,
      "stateMutability": "view",
      "type": "function"
    },
    {
      "constant": true,
      "inputs": [
        {
          "internalType": "uint256",
          "name": "",
          "type": "uint256"
        }
      ],
      "name": "HospitalsID",
      "outputs": [
        {
          "internalType": "uint256",
          "name": "id",
          "type": "uint256"
        },
        {
          "internalType": "string",
          "name": "name",
          "type": "string"
        },
        {
          "internalType": "address payable",
          "name": "owner",
          "type": "address"
        },
        {
          "internalType": "bool",
          "name": "isValidated",
          "type": "bool"
        },
        {
          "internalType": "string",
          "name": "vaccine",
          "type": "string"
        },
        {
          "internalType": "uint256",
          "name": "stock",
          "type": "uint256"
        },
        {
          "internalType": "uint256",
          "name": "nabhID",
          "type": "uint256"
        },
        {
          "internalType": "uint256",
          "name": "doseCost",
          "type": "uint256"
        }
      ],
      "payable": false,
      "stateMutability": "view",
      "type": "function"
    },
    {
      "constant": true,
      "inputs": [
        {
          "internalType": "address",
          "name": "",
          "type": "address"
        }
      ],
      "name": "Manufacturers",
      "outputs": [
        {
          "internalType": "uint256",
          "name": "id",
          "type": "uint256"
        },
        {
          "internalType": "string",
          "name": "name",
          "type": "string"
        },
        {
          "internalType": "address payable",
          "name": "owner",
          "type": "address"
        },
        {
          "internalType": "string",
          "name": "vaccine",
          "type": "string"
        },
        {
          "internalType": "uint256",
          "name": "capacity",
          "type": "uint256"
        },
        {
          "internalType": "uint256",
          "name": "gstNo",
          "type": "uint256"
        },
        {
          "internalType": "uint256",
          "name": "doseCost",
          "type": "uint256"
        },
        {
          "internalType": "bool",
          "name": "isCreated",
          "type": "bool"
        }
      ],
      "payable": false,
      "stateMutability": "view",
      "type": "function"
    },
    {
      "constant": true,
      "inputs": [
        {
          "internalType": "uint256",
          "name": "",
          "type": "uint256"
        }
      ],
      "name": "ManufacturersID",
      "outputs": [
        {
          "internalType": "uint256",
          "name": "id",
          "type": "uint256"
        },
        {
          "internalType": "string",
          "name": "name",
          "type": "string"
        },
        {
          "internalType": "address payable",
          "name": "owner",
          "type": "address"
        },
        {
          "internalType": "string",
          "name": "vaccine",
          "type": "string"
        },
        {
          "internalType": "uint256",
          "name": "capacity",
          "type": "uint256"
        },
        {
          "internalType": "uint256",
          "name": "gstNo",
          "type": "uint256"
        },
        {
          "internalType": "uint256",
          "name": "doseCost",
          "type": "uint256"
        },
        {
          "internalType": "bool",
          "name": "isCreated",
          "type": "bool"
        }
      ],
      "payable": false,
      "stateMutability": "view",
      "type": "function"
    },
    {
      "constant": true,
      "inputs": [],
      "name": "appointmentCount",
      "outputs": [
        {
          "internalType": "uint256",
          "name": "",
          "type": "uint256"
        }
      ],
      "payable": false,
      "stateMutability": "view",
      "type": "function"
    },
    {
      "constant": true,
      "inputs": [],
      "name": "citizenCount",
      "outputs": [
        {
          "internalType": "uint256",
          "name": "",
          "type": "uint256"
        }
      ],
      "payable": false,
      "stateMutability": "view",
      "type": "function"
    },
    {
      "constant": true,
      "inputs": [],
      "name": "hospitalCount",
      "outputs": [
        {
          "internalType": "uint256",
          "name": "",
          "type": "uint256"
        }
      ],
      "payable": false,
      "stateMutability": "view",
      "type": "function"
    },
    {
      "constant": true,
      "inputs": [],
      "name": "manufacturerCount",
      "outputs": [
        {
          "internalType": "uint256",
          "name": "",
          "type": "uint256"
        }
      ],
      "payable": false,
      "stateMutability": "view",
      "type": "function"
    },
    {
      "constant": true,
      "inputs": [],
      "name": "getGovernment",
      "outputs": [
        {
          "internalType": "address",
          "name": "",
          "type": "address"
        }
      ],
      "payable": false,
      "stateMutability": "view",
      "type": "function"
    },
    {
      "constant": true,
      "inputs": [
        {
          "internalType": "uint256",
          "name": "index",
          "type": "uint256"
        }
      ],
      "name": "getCitizenStatus",
      "outputs": [
        {
          "internalType": "string",
          "name": "",
          "type": "string"
        },
        {
          "internalType": "string",
          "name": "",
          "type": "string"
        },
        {
          "internalType": "bool",
          "name": "",
          "type": "bool"
        }
      ],
      "payable": false,
      "stateMutability": "view",
      "type": "function"
    },
    {
      "constant": false,
      "inputs": [
        {
          "internalType": "uint256",
          "name": "hospitalId",
          "type": "uint256"
        }
      ],
      "name": "validateHospital",
      "outputs": [],
      "payable": false,
      "stateMutability": "nonpayable",
      "type": "function"
    },
    {
      "constant": false,
      "inputs": [
        {
          "internalType": "string",
          "name": "name",
          "type": "string"
        }
      ],
      "name": "registerCitizen",
      "outputs": [],
      "payable": false,
      "stateMutability": "nonpayable",
      "type": "function"
    },
    {
      "constant": false,
      "inputs": [
        {
          "internalType": "string",
          "name": "date",
          "type": "string"
        },
        {
          "internalType": "uint256",
          "name": "hospitalID",
          "type": "uint256"
        },
        {
          "internalType": "address payable",
          "name": "hospitalAddress",
          "type": "address"
        },
        {
          "internalType": "string",
          "name": "vaccine",
          "type": "string"
        }
      ],
      "name": "bookAppointment",
      "outputs": [],
      "payable": true,
      "stateMutability": "payable",
      "type": "function"
    },
    {
      "constant": false,
      "inputs": [
        {
          "internalType": "string",
          "name": "name",
          "type": "string"
        },
        {
          "internalType": "string",
          "name": "vaccine",
          "type": "string"
        },
        {
          "internalType": "uint256",
          "name": "nabhID",
          "type": "uint256"
        },
        {
          "internalType": "uint256",
          "name": "doseCost",
          "type": "uint256"
        }
      ],
      "name": "registerHospital",
      "outputs": [],
      "payable": false,
      "stateMutability": "nonpayable",
      "type": "function"
    },
    {
      "constant": false,
      "inputs": [
        {
          "internalType": "uint256",
          "name": "appointmentId",
          "type": "uint256"
        },
        {
          "internalType": "uint256",
          "name": "citizenID",
          "type": "uint256"
        }
      ],
      "name": "vaccinateCitizen",
      "outputs": [],
      "payable": false,
      "stateMutability": "nonpayable",
      "type": "function"
    },
    {
      "constant": false,
      "inputs": [
        {
          "internalType": "address payable",
          "name": "manufacturerAddress",
          "type": "address"
        },
        {
          "internalType": "uint256",
          "name": "quantity",
          "type": "uint256"
        }
      ],
      "name": "placeVaccineOrder",
      "outputs": [],
      "payable": true,
      "stateMutability": "payable",
      "type": "function"
    },
    {
      "constant": false,
      "inputs": [
        {
          "internalType": "string",
          "name": "name",
          "type": "string"
        },
        {
          "internalType": "string",
          "name": "vaccine",
          "type": "string"
        },
        {
          "internalType": "uint256",
          "name": "gstNo",
          "type": "uint256"
        },
        {
          "internalType": "uint256",
          "name": "doseCost",
          "type": "uint256"
        }
      ],
      "name": "registerManufacturer",
      "outputs": [],
      "payable": false,
      "stateMutability": "nonpayable",
      "type": "function"
    },
    {
      "constant": false,
      "inputs": [
        {
          "internalType": "uint256",
          "name": "supply",
          "type": "uint256"
        }
      ],
      "name": "addSupply",
      "outputs": [],
      "payable": false,
      "stateMutability": "nonpayable",
      "type": "function"
    }
  ],
  "bytecode": "0x608060405234801561001057600080fd5b50336000806101000a81548173ffffffffffffffffffffffffffffffffffffffff021916908373ffffffffffffffffffffffffffffffffffffffff160217905550613af0806100606000396000f3fe60806040526004361061012a5760003560e01c806367dafe19116100ab578063bb58e40d1161006f578063bb58e40d14610ee7578063be0c6f1c14610f35578063e13f657514610f60578063e7085d7d1461110d578063eebc3fb21461129a578063f71350f6146112c55761012a565b806367dafe1914610a235780637e2e038b14610a5e5780637fad2c2314610bd557806381b4690d14610d00578063a549a4ed14610d575761012a565b806340753a76116100f257806340753a76146105545780634155849d1461058f578063448a6e9b146107095780634c56ad351461087c5780635b4c777d146109f85761012a565b80630297f0b31461012f57806309b7b88a146101f75780630c99052b1461036a5780630dc3b5da146103af578063350dadb714610529575b600080fd5b34801561013b57600080fd5b506101f56004803603602081101561015257600080fd5b810190808035906020019064010000000081111561016f57600080fd5b82018360208201111561018157600080fd5b803590602001918460018302840111640100000000831117156101a357600080fd5b91908080601f016020809104026020016040519081016040528093929190818152602001838380828437600081840152601f19601f820116905080830192505050505050509192919290505050611455565b005b34801561020357600080fd5b506103686004803603608081101561021a57600080fd5b810190808035906020019064010000000081111561023757600080fd5b82018360208201111561024957600080fd5b8035906020019184600183028401116401000000008311171561026b57600080fd5b91908080601f016020809104026020016040519081016040528093929190818152602001838380828437600081840152601f19601f820116905080830192505050505050509192919290803590602001906401000000008111156102ce57600080fd5b8201836020820111156102e057600080fd5b8035906020019184600183028401116401000000008311171561030257600080fd5b91908080601f016020809104026020016040519081016040528093929190818152602001838380828437600081840152601f19601f8201169050808301925050505050505091929192908035906020019092919080359060200190929190505050611702565b005b34801561037657600080fd5b506103ad6004803603604081101561038d57600080fd5b810190808035906020019092919080359060200190929190505050611969565b005b3480156103bb57600080fd5b506103e8600480360360208110156103d257600080fd5b8101908080359060200190929190505050611ca2565b60405180898152602001806020018873ffffffffffffffffffffffffffffffffffffffff1673ffffffffffffffffffffffffffffffffffffffff168152602001806020018781526020018681526020018581526020018415151515815260200183810383528a818151815260200191508051906020019080838360005b83811015610480578082015181840152602081019050610465565b50505050905090810190601f1680156104ad5780820380516001836020036101000a031916815260200191505b50838103825288818151815260200191508051906020019080838360005b838110156104e65780820151818401526020810190506104cb565b50505050905090810190601f1680156105135780820380516001836020036101000a031916815260200191505b509a505050505050505050505060405180910390f35b34801561053557600080fd5b5061053e611e47565b6040518082815260200191505060405180910390f35b34801561056057600080fd5b5061058d6004803603602081101561057757600080fd5b8101908080359060200190929190505050611e4d565b005b34801561059b57600080fd5b506105c8600480360360208110156105b257600080fd5b8101908080359060200190929190505050611eb9565b60405180898152602001806020018873ffffffffffffffffffffffffffffffffffffffff1673ffffffffffffffffffffffffffffffffffffffff168152602001871515151581526020018060200186815260200185815260200184815260200183810383528a818151815260200191508051906020019080838360005b83811015610660578082015181840152602081019050610645565b50505050905090810190601f16801561068d5780820380516001836020036101000a031916815260200191505b50838103825287818151815260200191508051906020019080838360005b838110156106c65780820151818401526020810190506106ab565b50505050905090810190601f1680156106f35780820380516001836020036101000a031916815260200191505b509a505050505050505050505060405180910390f35b34801561071557600080fd5b5061087a6004803603608081101561072c57600080fd5b810190808035906020019064010000000081111561074957600080fd5b82018360208201111561075b57600080fd5b8035906020019184600183028401116401000000008311171561077d57600080fd5b91908080601f016020809104026020016040519081016040528093929190818152602001838380828437600081840152601f19601f820116905080830192505050505050509192919290803590602001906401000000008111156107e057600080fd5b8201836020820111156107f257600080fd5b8035906020019184600183028401116401000000008311171561081457600080fd5b91908080601f016020809104026020016040519081016040528093929190818152602001838380828437600081840152601f19601f820116905080830192505050505050509192919290803590602001909291908035906020019092919050505061205e565b005b6109f66004803603608081101561089257600080fd5b81019080803590602001906401000000008111156108af57600080fd5b8201836020820111156108c157600080fd5b803590602001918460018302840111640100000000831117156108e357600080fd5b91908080601f016020809104026020016040519081016040528093929190818152602001838380828437600081840152601f19601f82011690508083019250505050505050919291929080359060200190929190803573ffffffffffffffffffffffffffffffffffffffff1690602001909291908035906020019064010000000081111561097057600080fd5b82018360208201111561098257600080fd5b803590602001918460018302840111640100000000831117156109a457600080fd5b91908080601f016020809104026020016040519081016040528093929190818152602001838380828437600081840152601f19601f8201169050808301925050505050505091929192905050506122c5565b005b348015610a0457600080fd5b50610a0d6126e9565b6040518082815260200191505060405180910390f35b348015610a2f57600080fd5b50610a5c60048036036020811015610a4657600080fd5b81019080803590602001909291905050506126ef565b005b348015610a6a57600080fd5b50610a9760048036036020811015610a8157600080fd5b8101908080359060200190929190505050612780565b60405180888152602001806020018773ffffffffffffffffffffffffffffffffffffffff1673ffffffffffffffffffffffffffffffffffffffff168152602001806020018615151515815260200185815260200184151515158152602001838103835289818151815260200191508051906020019080838360005b83811015610b2d578082015181840152602081019050610b12565b50505050905090810190601f168015610b5a5780820380516001836020036101000a031916815260200191505b50838103825287818151815260200191508051906020019080838360005b83811015610b93578082015181840152602081019050610b78565b50505050905090810190601f168015610bc05780820380516001836020036101000a031916815260200191505b50995050505050505050505060405180910390f35b348015610be157600080fd5b50610c0e60048036036020811015610bf857600080fd5b810190808035906020019092919050505061292c565b60405180806020018060200184151515158152602001838103835286818151815260200191508051906020019080838360005b83811015610c5c578082015181840152602081019050610c41565b50505050905090810190601f168015610c895780820380516001836020036101000a031916815260200191505b50838103825285818151815260200191508051906020019080838360005b83811015610cc2578082015181840152602081019050610ca7565b50505050905090810190601f168015610cef5780820380516001836020036101000a031916815260200191505b509550505050505060405180910390f35b348015610d0c57600080fd5b50610d15612b1f565b604051808273ffffffffffffffffffffffffffffffffffffffff1673ffffffffffffffffffffffffffffffffffffffff16815260200191505060405180910390f35b348015610d6357600080fd5b50610da660048036036020811015610d7a57600080fd5b81019080803573ffffffffffffffffffffffffffffffffffffffff169060200190929190505050612b48565b60405180898152602001806020018873ffffffffffffffffffffffffffffffffffffffff1673ffffffffffffffffffffffffffffffffffffffff168152602001871515151581526020018060200186815260200185815260200184815260200183810383528a818151815260200191508051906020019080838360005b83811015610e3e578082015181840152602081019050610e23565b50505050905090810190601f168015610e6b5780820380516001836020036101000a031916815260200191505b50838103825287818151815260200191508051906020019080838360005b83811015610ea4578082015181840152602081019050610e89565b50505050905090810190601f168015610ed15780820380516001836020036101000a031916815260200191505b509a505050505050505050505060405180910390f35b610f3360048036036040811015610efd57600080fd5b81019080803573ffffffffffffffffffffffffffffffffffffffff16906020019092919080359060200190929190505050612ced565b005b348015610f4157600080fd5b50610f4a6132b7565b6040518082815260200191505060405180910390f35b348015610f6c57600080fd5b50610f9960048036036020811015610f8357600080fd5b81019080803590602001909291905050506132bd565b604051808a8152602001806020018973ffffffffffffffffffffffffffffffffffffffff1673ffffffffffffffffffffffffffffffffffffffff1681526020018881526020018773ffffffffffffffffffffffffffffffffffffffff1673ffffffffffffffffffffffffffffffffffffffff168152602001868152602001806020018581526020018415151515815260200183810383528b818151815260200191508051906020019080838360005b83811015611063578082015181840152602081019050611048565b50505050905090810190601f1680156110905780820380516001836020036101000a031916815260200191505b50838103825286818151815260200191508051906020019080838360005b838110156110c95780820151818401526020810190506110ae565b50505050905090810190601f1680156110f65780820380516001836020036101000a031916815260200191505b509b50505050505050505050505060405180910390f35b34801561111957600080fd5b5061115c6004803603602081101561113057600080fd5b81019080803573ffffffffffffffffffffffffffffffffffffffff169060200190929190505050613488565b60405180888152602001806020018773ffffffffffffffffffffffffffffffffffffffff1673ffffffffffffffffffffffffffffffffffffffff168152602001806020018615151515815260200185815260200184151515158152602001838103835289818151815260200191508051906020019080838360005b838110156111f25780820151818401526020810190506111d7565b50505050905090810190601f16801561121f5780820380516001836020036101000a031916815260200191505b50838103825287818151815260200191508051906020019080838360005b8381101561125857808201518184015260208101905061123d565b50505050905090810190601f1680156112855780820380516001836020036101000a031916815260200191505b50995050505050505050505060405180910390f35b3480156112a657600080fd5b506112af613634565b6040518082815260200191505060405180910390f35b3480156112d157600080fd5b50611314600480360360208110156112e857600080fd5b81019080803573ffffffffffffffffffffffffffffffffffffffff16906020019092919050505061363a565b60405180898152602001806020018873ffffffffffffffffffffffffffffffffffffffff1673ffffffffffffffffffffffffffffffffffffffff168152602001806020018781526020018681526020018581526020018415151515815260200183810383528a818151815260200191508051906020019080838360005b838110156113ac578082015181840152602081019050611391565b50505050905090810190601f1680156113d95780820380516001836020036101000a031916815260200191505b50838103825288818151815260200191508051906020019080838360005b838110156114125780820151818401526020810190506113f7565b50505050905090810190601f16801561143f5780820380516001836020036101000a031916815260200191505b509a505050505050505050505060405180910390f35b61145d6137df565b6040518060e0016040528060025481526020018381526020013373ffffffffffffffffffffffffffffffffffffffff1681526020016040518060400160405280600e81526020017f4e6f742056616363696e6174656400000000000000000000000000000000000081525081526020016000151581526020016000815260200160011515815250905080600a60006002548152602001908152602001600020600082015181600001556020820151816001019080519060200190611522929190613836565b5060408201518160020160006101000a81548173ffffffffffffffffffffffffffffffffffffffff021916908373ffffffffffffffffffffffffffffffffffffffff1602179055506060820151816003019080519060200190611586929190613836565b5060808201518160040160006101000a81548160ff02191690831515021790555060a0820151816005015560c08201518160060160006101000a81548160ff02191690831515021790555090505080600960003373ffffffffffffffffffffffffffffffffffffffff1673ffffffffffffffffffffffffffffffffffffffff16815260200190815260200160002060008201518160000155602082015181600101908051906020019061163a929190613836565b5060408201518160020160006101000a81548173ffffffffffffffffffffffffffffffffffffffff021916908373ffffffffffffffffffffffffffffffffffffffff160217905550606082015181600301908051906020019061169e929190613836565b5060808201518160040160006101000a81548160ff02191690831515021790555060a0820151816005015560c08201518160060160006101000a81548160ff0219169083151502179055509050506002600081548092919060010191905055505050565b61170a6138b6565b60405180610100016040528060035481526020018681526020013373ffffffffffffffffffffffffffffffffffffffff1681526020016000151581526020018581526020016000815260200184815260200183815250905080600760003373ffffffffffffffffffffffffffffffffffffffff1673ffffffffffffffffffffffffffffffffffffffff1681526020019081526020016000206000820151816000015560208201518160010190805190602001906117c8929190613836565b5060408201518160020160006101000a81548173ffffffffffffffffffffffffffffffffffffffff021916908373ffffffffffffffffffffffffffffffffffffffff16021790555060608201518160020160146101000a81548160ff021916908315150217905550608082015181600301908051906020019061184c929190613836565b5060a0820151816004015560c0820151816005015560e08201518160060155905050806008600060035481526020019081526020016000206000820151816000015560208201518160010190805190602001906118aa929190613836565b5060408201518160020160006101000a81548173ffffffffffffffffffffffffffffffffffffffff021916908373ffffffffffffffffffffffffffffffffffffffff16021790555060608201518160020160146101000a81548160ff021916908315150217905550608082015181600301908051906020019061192e929190613836565b5060a0820151816004015560c0820151816005015560e082015181600601559050506003600081548092919060010191905055505050505050565b6000600760003373ffffffffffffffffffffffffffffffffffffffff1673ffffffffffffffffffffffffffffffffffffffff16815260200190815260200160002090508060020160009054906101000a900473ffffffffffffffffffffffffffffffffffffffff1673ffffffffffffffffffffffffffffffffffffffff163373ffffffffffffffffffffffffffffffffffffffff1614611a71576040517f08c379a00000000000000000000000000000000000000000000000000000000081526004018080602001828103825260168152602001807f596f7520617265206e6f7420617574686f72697365640000000000000000000081525060200191505060405180910390fd5b60011515600860008360000154815260200190815260200160002060020160149054906101000a900460ff16151514611af5576040517f08c379a0000000000000000000000000000000000000000000000000000000008152600401808060200182810382526025815260200180613a976025913960400191505060405180910390fd5b6000600a6000848152602001908152602001600020905081600301816003019080546001816001161561010002031660029004611b33929190613913565b50600181600501540181600501819055508060050154600960008360020160009054906101000a900473ffffffffffffffffffffffffffffffffffffffff1673ffffffffffffffffffffffffffffffffffffffff1673ffffffffffffffffffffffffffffffffffffffff16815260200190815260200160002060050181905550600281600501541415611c5d576001600960008360020160009054906101000a900473ffffffffffffffffffffffffffffffffffffffff1673ffffffffffffffffffffffffffffffffffffffff1673ffffffffffffffffffffffffffffffffffffffff16815260200190815260200160002060040160006101000a81548160ff02191690831515021790555060018160040160006101000a81548160ff0219169083151502179055505b600182600401540382600401819055506000600b600086815260200190815260200160002060080160006101000a81548160ff02191690831515021790555050505050565b6006602052806000526040600020600091509050806000015490806001018054600181600116156101000203166002900480601f016020809104026020016040519081016040528092919081815260200182805460018160011615610100020316600290048015611d545780601f10611d2957610100808354040283529160200191611d54565b820191906000526020600020905b815481529060010190602001808311611d3757829003601f168201915b5050505050908060020160009054906101000a900473ffffffffffffffffffffffffffffffffffffffff1690806003018054600181600116156101000203166002900480601f016020809104026020016040519081016040528092919081815260200182805460018160011615610100020316600290048015611e185780601f10611ded57610100808354040283529160200191611e18565b820191906000526020600020905b815481529060010190602001808311611dfb57829003601f168201915b5050505050908060040154908060050154908060060154908060070160009054906101000a900460ff16905088565b60035481565b600060066000600560003373ffffffffffffffffffffffffffffffffffffffff1673ffffffffffffffffffffffffffffffffffffffff16815260200190815260200160002060000154815260200190815260200160002090508181600401540181600401819055505050565b6008602052806000526040600020600091509050806000015490806001018054600181600116156101000203166002900480601f016020809104026020016040519081016040528092919081815260200182805460018160011615610100020316600290048015611f6b5780601f10611f4057610100808354040283529160200191611f6b565b820191906000526020600020905b815481529060010190602001808311611f4e57829003601f168201915b5050505050908060020160009054906101000a900473ffffffffffffffffffffffffffffffffffffffff16908060020160149054906101000a900460ff1690806003018054600181600116156101000203166002900480601f0160208091040260200160405190810160405280929190818152602001828054600181600116156101000203166002900480156120425780601f1061201757610100808354040283529160200191612042565b820191906000526020600020905b81548152906001019060200180831161202557829003601f168201915b5050505050908060040154908060050154908060060154905088565b61206661399a565b60405180610100016040528060015481526020018681526020013373ffffffffffffffffffffffffffffffffffffffff1681526020018581526020016000815260200184815260200183815260200160011515815250905080600560003373ffffffffffffffffffffffffffffffffffffffff1673ffffffffffffffffffffffffffffffffffffffff168152602001908152602001600020600082015181600001556020820151816001019080519060200190612124929190613836565b5060408201518160020160006101000a81548173ffffffffffffffffffffffffffffffffffffffff021916908373ffffffffffffffffffffffffffffffffffffffff1602179055506060820151816003019080519060200190612188929190613836565b506080820151816004015560a0820151816005015560c0820151816006015560e08201518160070160006101000a81548160ff02191690831515021790555090505080600660006001548152602001908152602001600020600082015181600001556020820151816001019080519060200190612206929190613836565b5060408201518160020160006101000a81548173ffffffffffffffffffffffffffffffffffffffff021916908373ffffffffffffffffffffffffffffffffffffffff160217905550606082015181600301908051906020019061226a929190613836565b506080820151816004015560a0820151816005015560c0820151816006015560e08201518160070160006101000a81548160ff0219169083151502179055509050506001600081548092919060010191905055505050505050565b60001515600960003373ffffffffffffffffffffffffffffffffffffffff1673ffffffffffffffffffffffffffffffffffffffff16815260200190815260200160002060040160009054906101000a900460ff1615151461238e576040517f08c379a000000000000000000000000000000000000000000000000000000000815260040180806020018281038252601b8152602001807f596f752061726520616c72656164792076616363696e6174656421000000000081525060200191505060405180910390fd5b600160086000600760008673ffffffffffffffffffffffffffffffffffffffff1673ffffffffffffffffffffffffffffffffffffffff16815260200190815260200160002060000154815260200190815260200160002060040154101561245d576040517f08c379a00000000000000000000000000000000000000000000000000000000081526004018080602001828103825260108152602001807f4e6f7420656e6f7567682073746f636b0000000000000000000000000000000081525060200191505060405180910390fd5b6124656139f7565b60405180610120016040528060045481526020018681526020013373ffffffffffffffffffffffffffffffffffffffff168152602001600960003373ffffffffffffffffffffffffffffffffffffffff1673ffffffffffffffffffffffffffffffffffffffff1681526020019081526020016000206000015481526020018473ffffffffffffffffffffffffffffffffffffffff1681526020018581526020018381526020016001600960003373ffffffffffffffffffffffffffffffffffffffff1673ffffffffffffffffffffffffffffffffffffffff1681526020019081526020016000206005015401815260200160001515815250905080600b6000600454815260200190815260200160002060008201518160000155602082015181600101908051906020019061259b929190613836565b5060408201518160020160006101000a81548173ffffffffffffffffffffffffffffffffffffffff021916908373ffffffffffffffffffffffffffffffffffffffff1602179055506060820151816003015560808201518160040160006101000a81548173ffffffffffffffffffffffffffffffffffffffff021916908373ffffffffffffffffffffffffffffffffffffffff16021790555060a0820151816005015560c082015181600601908051906020019061265a929190613836565b5060e082015181600701556101008201518160080160006101000a81548160ff0219169083151502179055509050506004600081548092919060010191905055508273ffffffffffffffffffffffffffffffffffffffff166108fc349081150290604051600060405180830381858888f193505050501580156126e1573d6000803e3d6000fd5b505050505050565b60025481565b6000809054906101000a900473ffffffffffffffffffffffffffffffffffffffff1673ffffffffffffffffffffffffffffffffffffffff163373ffffffffffffffffffffffffffffffffffffffff161461274857600080fd5b600060086000838152602001908152602001600020905060018160020160146101000a81548160ff0219169083151502179055505050565b600a602052806000526040600020600091509050806000015490806001018054600181600116156101000203166002900480601f0160208091040260200160405190810160405280929190818152602001828054600181600116156101000203166002900480156128325780601f1061280757610100808354040283529160200191612832565b820191906000526020600020905b81548152906001019060200180831161281557829003601f168201915b5050505050908060020160009054906101000a900473ffffffffffffffffffffffffffffffffffffffff1690806003018054600181600116156101000203166002900480601f0160208091040260200160405190810160405280929190818152602001828054600181600116156101000203166002900480156128f65780601f106128cb576101008083540402835291602001916128f6565b820191906000526020600020905b8154815290600101906020018083116128d957829003601f168201915b5050505050908060040160009054906101000a900460ff16908060050154908060060160009054906101000a900460ff16905087565b60608060008060009054906101000a900473ffffffffffffffffffffffffffffffffffffffff1673ffffffffffffffffffffffffffffffffffffffff163373ffffffffffffffffffffffffffffffffffffffff161461298a57600080fd5b600a6000858152602001908152602001600020600101600a6000868152602001908152602001600020600301600a600087815260200190815260200160002060040160009054906101000a900460ff16828054600181600116156101000203166002900480601f016020809104026020016040519081016040528092919081815260200182805460018160011615610100020316600290048015612a6f5780601f10612a4457610100808354040283529160200191612a6f565b820191906000526020600020905b815481529060010190602001808311612a5257829003601f168201915b50505050509250818054600181600116156101000203166002900480601f016020809104026020016040519081016040528092919081815260200182805460018160011615610100020316600290048015612b0b5780601f10612ae057610100808354040283529160200191612b0b565b820191906000526020600020905b815481529060010190602001808311612aee57829003601f168201915b505050505091509250925092509193909250565b60008060009054906101000a900473ffffffffffffffffffffffffffffffffffffffff16905090565b6007602052806000526040600020600091509050806000015490806001018054600181600116156101000203166002900480601f016020809104026020016040519081016040528092919081815260200182805460018160011615610100020316600290048015612bfa5780601f10612bcf57610100808354040283529160200191612bfa565b820191906000526020600020905b815481529060010190602001808311612bdd57829003601f168201915b5050505050908060020160009054906101000a900473ffffffffffffffffffffffffffffffffffffffff16908060020160149054906101000a900460ff1690806003018054600181600116156101000203166002900480601f016020809104026020016040519081016040528092919081815260200182805460018160011615610100020316600290048015612cd15780601f10612ca657610100808354040283529160200191612cd1565b820191906000526020600020905b815481529060010190602001808311612cb457829003601f168201915b5050505050908060040154908060050154908060060154905088565b612cf561399a565b60066000600560008673ffffffffffffffffffffffffffffffffffffffff1673ffffffffffffffffffffffffffffffffffffffff1681526020019081526020016000206000015481526020019081526020016000206040518061010001604052908160008201548152602001600182018054600181600116156101000203166002900480601f016020809104026020016040519081016040528092919081815260200182805460018160011615610100020316600290048015612df95780601f10612dce57610100808354040283529160200191612df9565b820191906000526020600020905b815481529060010190602001808311612ddc57829003601f168201915b505050505081526020016002820160009054906101000a900473ffffffffffffffffffffffffffffffffffffffff1673ffffffffffffffffffffffffffffffffffffffff1673ffffffffffffffffffffffffffffffffffffffff168152602001600382018054600181600116156101000203166002900480601f016020809104026020016040519081016040528092919081815260200182805460018160011615610100020316600290048015612ef15780601f10612ec657610100808354040283529160200191612ef1565b820191906000526020600020905b815481529060010190602001808311612ed457829003601f168201915b505050505081526020016004820154815260200160058201548152602001600682015481526020016007820160009054906101000a900460ff16151515158152505090508060800151821115612faf576040517f08c379a000000000000000000000000000000000000000000000000000000000815260040180806020018281038252601d8152602001807f4e6f7420656e6f756768207175616e7469747920617661696c61626c6500000081525060200191505060405180910390fd5b81816080015103816080018181525050612fc761399a565b600560008573ffffffffffffffffffffffffffffffffffffffff1673ffffffffffffffffffffffffffffffffffffffff1681526020019081526020016000206040518061010001604052908160008201548152602001600182018054600181600116156101000203166002900480601f0160208091040260200160405190810160405280929190818152602001828054600181600116156101000203166002900480156130b55780601f1061308a576101008083540402835291602001916130b5565b820191906000526020600020905b81548152906001019060200180831161309857829003601f168201915b505050505081526020016002820160009054906101000a900473ffffffffffffffffffffffffffffffffffffffff1673ffffffffffffffffffffffffffffffffffffffff1673ffffffffffffffffffffffffffffffffffffffff168152602001600382018054600181600116156101000203166002900480601f0160208091040260200160405190810160405280929190818152602001828054600181600116156101000203166002900480156131ad5780601f10613182576101008083540402835291602001916131ad565b820191906000526020600020905b81548152906001019060200180831161319057829003601f168201915b505050505081526020016004820154815260200160058201548152602001600682015481526020016007820160009054906101000a900460ff161515151581525050905082816080015103816080018181525050600060086000600760003373ffffffffffffffffffffffffffffffffffffffff1673ffffffffffffffffffffffffffffffffffffffff16815260200190815260200160002060000154815260200190815260200160002090508381600401540181600401819055508473ffffffffffffffffffffffffffffffffffffffff166108fc349081150290604051600060405180830381858888f193505050501580156132af573d6000803e3d6000fd5b505050505050565b60015481565b600b602052806000526040600020600091509050806000015490806001018054600181600116156101000203166002900480601f01602080910402602001604051908101604052809291908181526020018280546001816001161561010002031660029004801561336f5780601f106133445761010080835404028352916020019161336f565b820191906000526020600020905b81548152906001019060200180831161335257829003601f168201915b5050505050908060020160009054906101000a900473ffffffffffffffffffffffffffffffffffffffff16908060030154908060040160009054906101000a900473ffffffffffffffffffffffffffffffffffffffff1690806005015490806006018054600181600116156101000203166002900480601f0160208091040260200160405190810160405280929190818152602001828054600181600116156101000203166002900480156134655780601f1061343a57610100808354040283529160200191613465565b820191906000526020600020905b81548152906001019060200180831161344857829003601f168201915b5050505050908060070154908060080160009054906101000a900460ff16905089565b6009602052806000526040600020600091509050806000015490806001018054600181600116156101000203166002900480601f01602080910402602001604051908101604052809291908181526020018280546001816001161561010002031660029004801561353a5780601f1061350f5761010080835404028352916020019161353a565b820191906000526020600020905b81548152906001019060200180831161351d57829003601f168201915b5050505050908060020160009054906101000a900473ffffffffffffffffffffffffffffffffffffffff1690806003018054600181600116156101000203166002900480601f0160208091040260200160405190810160405280929190818152602001828054600181600116156101000203166002900480156135fe5780601f106135d3576101008083540402835291602001916135fe565b820191906000526020600020905b8154815290600101906020018083116135e157829003601f168201915b5050505050908060040160009054906101000a900460ff16908060050154908060060160009054906101000a900460ff16905087565b60045481565b6005602052806000526040600020600091509050806000015490806001018054600181600116156101000203166002900480601f0160208091040260200160405190810160405280929190818152602001828054600181600116156101000203166002900480156136ec5780601f106136c1576101008083540402835291602001916136ec565b820191906000526020600020905b8154815290600101906020018083116136cf57829003601f168201915b5050505050908060020160009054906101000a900473ffffffffffffffffffffffffffffffffffffffff1690806003018054600181600116156101000203166002900480601f0160208091040260200160405190810160405280929190818152602001828054600181600116156101000203166002900480156137b05780601f10613785576101008083540402835291602001916137b0565b820191906000526020600020905b81548152906001019060200180831161379357829003601f168201915b5050505050908060040154908060050154908060060154908060070160009054906101000a900460ff16905088565b6040518060e001604052806000815260200160608152602001600073ffffffffffffffffffffffffffffffffffffffff16815260200160608152602001600015158152602001600081526020016000151581525090565b828054600181600116156101000203166002900490600052602060002090601f016020900481019282601f1061387757805160ff19168380011785556138a5565b828001600101855582156138a5579182015b828111156138a4578251825591602001919060010190613889565b5b5090506138b29190613a71565b5090565b6040518061010001604052806000815260200160608152602001600073ffffffffffffffffffffffffffffffffffffffff168152602001600015158152602001606081526020016000815260200160008152602001600081525090565b828054600181600116156101000203166002900490600052602060002090601f016020900481019282601f1061394c5780548555613989565b8280016001018555821561398957600052602060002091601f016020900482015b8281111561398857825482559160010191906001019061396d565b5b5090506139969190613a71565b5090565b6040518061010001604052806000815260200160608152602001600073ffffffffffffffffffffffffffffffffffffffff168152602001606081526020016000815260200160008152602001600081526020016000151581525090565b6040518061012001604052806000815260200160608152602001600073ffffffffffffffffffffffffffffffffffffffff16815260200160008152602001600073ffffffffffffffffffffffffffffffffffffffff1681526020016000815260200160608152602001600081526020016000151581525090565b613a9391905b80821115613a8f576000816000905550600101613a77565b5090565b9056fe486f73706974616c206e6f7420617574686f726973656420627920676f7665726e6d656e74a265627a7a72315820ee96d8857192644bc61f288e0623fecde1b992a11e93ca0b52ca63072b21d73464736f6c63430005100032",
  "source": "// SPDX-License-Identifier: MIT\n\npragma solidity >=0.5.0;\n\ncontract VacSeen {\n\n    // ---GOVERNMENT CONTROL---\n    // Government\n    address government;\n    \n    // Set the contract creator as government\n    constructor() public {\n        government = msg.sender;\n    }\n    \n    // Returrn the government's public addrerss\n    function getGovernment() public view returns (address) {\n        return government;\n    }\n    \n    // Get status of citizen - only government can access this data\n    function getCitizenStatus(uint index) public view onlyGovernment returns (string memory, string memory, bool) {\n        return (Citizens[index].name, Citizens[index].vaccine, Citizens[index].vaccinated);\n    }\n    \n    // Grant hospital permission to vaccinate\n    function validateHospital(uint hospitalId) public onlyGovernment {\n        Hospital storage hospital = HospitalsID[hospitalId]; // Fetch associated hospital\n        hospital.isValidated = true; // Validate hospital\n    }\n    \n    // Custom modifier to enable only the government to access certain data\n    modifier onlyGovernment() {\n        require(msg.sender == government);\n        _;\n    }\n    // ---END GOVERNMENT CONTROL---\n    \n    \n    \n    // ---VARIABLES---\n    // Variables to keep track of instance counts\n    uint public manufacturerCount;\n    uint public citizenCount;\n    uint public hospitalCount;\n    uint public appointmentCount;\n    \n    // Mappings to keep track of structs\n    mapping(address => Manufacturer) public Manufacturers; // Mapping that holds records of all manufacturers\n    mapping(uint => Manufacturer) public ManufacturersID; // Mapping that holds records of all manufacturers by id\n    mapping(address => Hospital) public Hospitals; // Mapping that holds records of all hospitals\n    mapping(uint => Hospital) public HospitalsID; // Mapping that holds records of all hospitals by id\n    mapping(address => Citizen) public CitizensAddress; // Mapping that holds records of all citizens by address\n    mapping(uint => Citizen) public Citizens; // Mapping that holds records of all citizens \n    mapping(uint => Appointment) public Appointments; // Mapping that holds records of all appointments \n\n    // Structs for Hospital, Manufacturers, Citizens and Appointments\n    struct Hospital {\n        uint id;\n        string name;\n        address payable owner;\n        bool isValidated;\n        string vaccine;\n        uint stock;\n        uint nabhID;\n        uint doseCost;\n    }\n    \n    struct Manufacturer {\n        uint id;\n        string name;\n        address payable owner;\n        string vaccine;\n        uint capacity;\n        uint gstNo;\n        uint doseCost;\n        bool isCreated;\n    }\n    \n    struct Citizen {\n        uint id;\n        string name;\n        address publicAddress;\n        string vaccine;\n        bool vaccinated;\n        uint doses;\n        bool isCreated;\n    }\n    \n    struct Appointment {\n        uint id;\n        string date;\n        address citizen;\n        uint citizenId;\n        address payable hospital;\n        uint hospitalId;\n        string vaccine;\n        uint doseCount;\n        bool vaccinated;\n    }\n    // ---END VARIABLES---\n    \n    \n    \n    // ---CITIZEN METHODS---\n    // Citizen register themselves for vaccination\n    function registerCitizen(string memory name) public {\n        Citizen memory citizen = Citizen(citizenCount, name, msg.sender, \"Not Vaccinated\", false, 0, true); // Create new citizen \n        Citizens[citizenCount] = citizen; // Pass instance to mapping\n        CitizensAddress[msg.sender] = citizen; // Pass instance to mapping\n        citizenCount++; // Increment identifier for subsequent creation\n    }\n    \n    // Citizens book vaccination slot\n    function bookAppointment(string memory date, uint hospitalID, address payable hospitalAddress, string memory vaccine) public payable {\n        require(CitizensAddress[msg.sender].vaccinated == false, \"You are already vaccinated!\");\n        require(HospitalsID[Hospitals[hospitalAddress].id].stock >= 1, \"Not enough stock\");\n        Appointment memory appointment = Appointment(appointmentCount, date, msg.sender, CitizensAddress[msg.sender].id, hospitalAddress, \n        hospitalID, vaccine, CitizensAddress[msg.sender].doses+1, false); // Create new appointment\n        Appointments[appointmentCount] = appointment; // Pass instance to mapping\n        appointmentCount++; // Increment identifier for subsequent creation\n        \n        hospitalAddress.transfer(msg.value); // Pay for vaccine\n    }\n    // ---END CITIZEN METHODS---\n    \n    \n    \n    // ---HOSPITAL METHODS---\n    // Register hospital\n    function registerHospital(string memory name, string memory vaccine, uint nabhID, uint doseCost) public {\n        Hospital memory hospital = Hospital(hospitalCount, name, msg.sender, false, vaccine, 0, nabhID, doseCost); // Create new instance variable \n        Hospitals[msg.sender] = hospital; // Pass instance to mapping \n        HospitalsID[hospitalCount] = hospital; // Pass instance to mapping \n        hospitalCount++; // Increment identifier for subsequent creation\n    }\n    \n    // Citizen vaccinated at hospital - only hospitals can do this\n    function vaccinateCitizen(uint appointmentId, uint citizenID) public {\n        Hospital storage hospital = Hospitals[msg.sender]; // Fetch associated hospital\n        \n        require(msg.sender == hospital.owner, \"You are not authorised\"); // Only authorised hospitals can vaccinate people\n        require(HospitalsID[hospital.id].isValidated == true , \"Hospital not authorised by government\"); // Only authorised hospitals can vaccinate people\n        \n        Citizen storage citizen = Citizens[citizenID]; // Fetch associated citizen\n        citizen.vaccine = hospital.vaccine; // Set vaccine\n        citizen.doses = citizen.doses + 1; // Increment doses\n        CitizensAddress[citizen.publicAddress].doses = citizen.doses; // Increment doses\n        \n        // Mark citizen as vaccinated if this is second dose\n        if(citizen.doses == 2){\n            CitizensAddress[citizen.publicAddress].vaccinated = true;\n            citizen.vaccinated = true;\n        }\n        \n        hospital.stock = hospital.stock - 1; // Reduce vaccine from stock\n        \n        Appointments[appointmentId].vaccinated = false; // Set appointment as completed\n    }\n    \n    // Place vaccine order\n    function placeVaccineOrder(address payable manufacturerAddress, uint quantity) payable public {\n        Manufacturer memory manufacturer = ManufacturersID[Manufacturers[manufacturerAddress].id];\n        require(quantity <= manufacturer.capacity, \"Not enough quantity available\");\n        manufacturer.capacity = manufacturer.capacity - quantity;\n\n        Manufacturer memory manufacturerAdd = Manufacturers[manufacturerAddress];\n        manufacturerAdd.capacity = manufacturerAdd.capacity - quantity;\n\n        Hospital storage hospital = HospitalsID[Hospitals[msg.sender].id];\n        hospital.stock = hospital.stock + quantity;\n        \n        manufacturerAddress.transfer(msg.value); // Pay the manufacturer\n    }\n    // ---END HOSPITAL METHODS---\n    \n    \n    \n    /// ---MANUFACTURER METHODS---\n    // Register hospital\n    function registerManufacturer(string memory name, string memory vaccine, uint gstNo, uint doseCost) public {\n        Manufacturer memory manufacturer = Manufacturer(manufacturerCount, name, msg.sender, vaccine, 0, gstNo, doseCost, true); // Create new instance variable \n        Manufacturers[msg.sender] = manufacturer; // Pass instance to mapping \n        ManufacturersID[manufacturerCount] = manufacturer; // Pass instance to mapping \n        manufacturerCount++; // Increment identifier for subsequent creation\n    }\n    \n    function addSupply(uint supply) public {\n        Manufacturer storage manufacturer = ManufacturersID[Manufacturers[msg.sender].id];\n        manufacturer.capacity = manufacturer.capacity + supply;\n    }\n    /// ---END MANUFACTURER METHODS---\n\n}",
  "sourcePath": "/Users/skhiearth/Desktop/VacSeen/VacSeen/src/contracts/VacSeen.sol",
  "compiler": {
    "name": "solc",
    "version": "0.5.16+commit.9c3226ce.Emscripten.clang"
  },
  "schemaVersion": "3.3.4",
  "updatedAt": "2021-05-21T17:52:57.751Z",
  "networkType": "ethereum",
  "devdoc": {
    "methods": {}
  },
  "userdoc": {
    "methods": {
      "registerManufacturer(string,string,uint256,uint256)": {
        "notice": "---MANUFACTURER METHODS---"
      }
    }
  }
}