{
  "contractName": "VacSeen",
  "abi": [
    {
      "inputs": [],
      "payable": false,
      "stateMutability": "nonpayable",
      "type": "constructor"
    },
    {
      "constant": true,
      "inputs": [
        {
          "internalType": "address",
          "name": "",
          "type": "address"
        }
      ],
      "name": "Hospitals",
      "outputs": [
        {
          "internalType": "uint256",
          "name": "id",
          "type": "uint256"
        },
        {
          "internalType": "string",
          "name": "name",
          "type": "string"
        },
        {
          "internalType": "address payable",
          "name": "owner",
          "type": "address"
        },
        {
          "internalType": "bool",
          "name": "isValidated",
          "type": "bool"
        },
        {
          "internalType": "string",
          "name": "vaccine",
          "type": "string"
        },
        {
          "internalType": "uint256",
          "name": "stock",
          "type": "uint256"
        },
        {
          "internalType": "uint256",
          "name": "nabhID",
          "type": "uint256"
        },
        {
          "internalType": "uint256",
          "name": "doseCost",
          "type": "uint256"
        }
      ],
      "payable": false,
      "stateMutability": "view",
      "type": "function"
    },
    {
      "constant": true,
      "inputs": [
        {
          "internalType": "uint256",
          "name": "",
          "type": "uint256"
        }
      ],
      "name": "HospitalsID",
      "outputs": [
        {
          "internalType": "uint256",
          "name": "id",
          "type": "uint256"
        },
        {
          "internalType": "string",
          "name": "name",
          "type": "string"
        },
        {
          "internalType": "address payable",
          "name": "owner",
          "type": "address"
        },
        {
          "internalType": "bool",
          "name": "isValidated",
          "type": "bool"
        },
        {
          "internalType": "string",
          "name": "vaccine",
          "type": "string"
        },
        {
          "internalType": "uint256",
          "name": "stock",
          "type": "uint256"
        },
        {
          "internalType": "uint256",
          "name": "nabhID",
          "type": "uint256"
        },
        {
          "internalType": "uint256",
          "name": "doseCost",
          "type": "uint256"
        }
      ],
      "payable": false,
      "stateMutability": "view",
      "type": "function"
    },
    {
      "constant": true,
      "inputs": [
        {
          "internalType": "address",
          "name": "",
          "type": "address"
        }
      ],
      "name": "Manufacturers",
      "outputs": [
        {
          "internalType": "uint256",
          "name": "id",
          "type": "uint256"
        },
        {
          "internalType": "string",
          "name": "name",
          "type": "string"
        },
        {
          "internalType": "address payable",
          "name": "owner",
          "type": "address"
        },
        {
          "internalType": "string",
          "name": "vaccine",
          "type": "string"
        },
        {
          "internalType": "uint256",
          "name": "capacity",
          "type": "uint256"
        },
        {
          "internalType": "uint256",
          "name": "gstNo",
          "type": "uint256"
        },
        {
          "internalType": "uint256",
          "name": "doseCost",
          "type": "uint256"
        },
        {
          "internalType": "bool",
          "name": "isCreated",
          "type": "bool"
        }
      ],
      "payable": false,
      "stateMutability": "view",
      "type": "function"
    },
    {
      "constant": true,
      "inputs": [
        {
          "internalType": "uint256",
          "name": "",
          "type": "uint256"
        }
      ],
      "name": "ManufacturersID",
      "outputs": [
        {
          "internalType": "uint256",
          "name": "id",
          "type": "uint256"
        },
        {
          "internalType": "string",
          "name": "name",
          "type": "string"
        },
        {
          "internalType": "address payable",
          "name": "owner",
          "type": "address"
        },
        {
          "internalType": "string",
          "name": "vaccine",
          "type": "string"
        },
        {
          "internalType": "uint256",
          "name": "capacity",
          "type": "uint256"
        },
        {
          "internalType": "uint256",
          "name": "gstNo",
          "type": "uint256"
        },
        {
          "internalType": "uint256",
          "name": "doseCost",
          "type": "uint256"
        },
        {
          "internalType": "bool",
          "name": "isCreated",
          "type": "bool"
        }
      ],
      "payable": false,
      "stateMutability": "view",
      "type": "function"
    },
    {
      "constant": true,
      "inputs": [],
      "name": "appointmentCount",
      "outputs": [
        {
          "internalType": "uint256",
          "name": "",
          "type": "uint256"
        }
      ],
      "payable": false,
      "stateMutability": "view",
      "type": "function"
    },
    {
      "constant": true,
      "inputs": [],
      "name": "citizenCount",
      "outputs": [
        {
          "internalType": "uint256",
          "name": "",
          "type": "uint256"
        }
      ],
      "payable": false,
      "stateMutability": "view",
      "type": "function"
    },
    {
      "constant": true,
      "inputs": [],
      "name": "government",
      "outputs": [
        {
          "internalType": "address",
          "name": "",
          "type": "address"
        }
      ],
      "payable": false,
      "stateMutability": "view",
      "type": "function"
    },
    {
      "constant": true,
      "inputs": [],
      "name": "hospitalCount",
      "outputs": [
        {
          "internalType": "uint256",
          "name": "",
          "type": "uint256"
        }
      ],
      "payable": false,
      "stateMutability": "view",
      "type": "function"
    },
    {
      "constant": true,
      "inputs": [],
      "name": "manufacturerCount",
      "outputs": [
        {
          "internalType": "uint256",
          "name": "",
          "type": "uint256"
        }
      ],
      "payable": false,
      "stateMutability": "view",
      "type": "function"
    },
    {
      "constant": true,
      "inputs": [],
      "name": "getGovernment",
      "outputs": [
        {
          "internalType": "address",
          "name": "",
          "type": "address"
        }
      ],
      "payable": false,
      "stateMutability": "view",
      "type": "function"
    },
    {
      "constant": true,
      "inputs": [
        {
          "internalType": "uint256",
          "name": "index",
          "type": "uint256"
        }
      ],
      "name": "getCitizenStatus",
      "outputs": [
        {
          "internalType": "string",
          "name": "",
          "type": "string"
        },
        {
          "internalType": "string",
          "name": "",
          "type": "string"
        },
        {
          "internalType": "bool",
          "name": "",
          "type": "bool"
        }
      ],
      "payable": false,
      "stateMutability": "view",
      "type": "function"
    },
    {
      "constant": false,
      "inputs": [
        {
          "internalType": "uint256",
          "name": "hospitalId",
          "type": "uint256"
        }
      ],
      "name": "validateHospital",
      "outputs": [],
      "payable": false,
      "stateMutability": "nonpayable",
      "type": "function"
    },
    {
      "constant": false,
      "inputs": [
        {
          "internalType": "string",
          "name": "name",
          "type": "string"
        }
      ],
      "name": "registerCitizen",
      "outputs": [],
      "payable": false,
      "stateMutability": "nonpayable",
      "type": "function"
    },
    {
      "constant": false,
      "inputs": [
        {
          "internalType": "string",
          "name": "date",
          "type": "string"
        },
        {
          "internalType": "uint256",
          "name": "hospitalID",
          "type": "uint256"
        },
        {
          "internalType": "address payable",
          "name": "hospitalAddress",
          "type": "address"
        },
        {
          "internalType": "string",
          "name": "vaccine",
          "type": "string"
        }
      ],
      "name": "bookAppointment",
      "outputs": [],
      "payable": true,
      "stateMutability": "payable",
      "type": "function"
    },
    {
      "constant": false,
      "inputs": [
        {
          "internalType": "string",
          "name": "name",
          "type": "string"
        },
        {
          "internalType": "string",
          "name": "vaccine",
          "type": "string"
        },
        {
          "internalType": "uint256",
          "name": "nabhID",
          "type": "uint256"
        },
        {
          "internalType": "uint256",
          "name": "doseCost",
          "type": "uint256"
        }
      ],
      "name": "registerHospital",
      "outputs": [],
      "payable": false,
      "stateMutability": "nonpayable",
      "type": "function"
    },
    {
      "constant": false,
      "inputs": [
        {
          "internalType": "uint256",
          "name": "appointmentId",
          "type": "uint256"
        },
        {
          "internalType": "uint256",
          "name": "citizenID",
          "type": "uint256"
        }
      ],
      "name": "vaccinateCitizen",
      "outputs": [],
      "payable": false,
      "stateMutability": "nonpayable",
      "type": "function"
    },
    {
      "constant": false,
      "inputs": [
        {
          "internalType": "address",
          "name": "manufacturerAddress",
          "type": "address"
        },
        {
          "internalType": "uint256",
          "name": "quantity",
          "type": "uint256"
        }
      ],
      "name": "placeVaccineOrder",
      "outputs": [],
      "payable": true,
      "stateMutability": "payable",
      "type": "function"
    },
    {
      "constant": false,
      "inputs": [
        {
          "internalType": "string",
          "name": "name",
          "type": "string"
        },
        {
          "internalType": "string",
          "name": "vaccine",
          "type": "string"
        },
        {
          "internalType": "uint256",
          "name": "gstNo",
          "type": "uint256"
        },
        {
          "internalType": "uint256",
          "name": "doseCost",
          "type": "uint256"
        }
      ],
      "name": "registerManufacturer",
      "outputs": [],
      "payable": false,
      "stateMutability": "nonpayable",
      "type": "function"
    },
    {
      "constant": false,
      "inputs": [
        {
          "internalType": "uint256",
          "name": "supply",
          "type": "uint256"
        }
      ],
      "name": "addSupply",
      "outputs": [],
      "payable": false,
      "stateMutability": "nonpayable",
      "type": "function"
    }
  ],
  "bytecode": "0x608060405234801561001057600080fd5b50336000806101000a81548173ffffffffffffffffffffffffffffffffffffffff021916908373ffffffffffffffffffffffffffffffffffffffff160217905550612eae806100606000396000f3fe6080604052600436106101145760003560e01c80634c56ad35116100a0578063a549a4ed11610064578063a549a4ed14610c21578063bb58e40d14610db1578063be0c6f1c14610dff578063eebc3fb214610e2a578063f71350f614610e5557610114565b80634c56ad35146108bd5780635b4c777d14610a3957806367dafe1914610a645780637fad2c2314610a9f57806381b4690d14610bca57610114565b80632672f526116100e75780632672f52614610513578063350dadb71461056a57806340753a76146105955780634155849d146105d0578063448a6e9b1461074a57610114565b80630297f0b31461011957806309b7b88a146101e15780630c99052b146103545780630dc3b5da14610399575b600080fd5b34801561012557600080fd5b506101df6004803603602081101561013c57600080fd5b810190808035906020019064010000000081111561015957600080fd5b82018360208201111561016b57600080fd5b8035906020019184600183028401116401000000008311171561018d57600080fd5b91908080601f016020809104026020016040519081016040528093929190818152602001838380828437600081840152601f19601f820116905080830192505050505050509192919290505050610fe5565b005b3480156101ed57600080fd5b506103526004803603608081101561020457600080fd5b810190808035906020019064010000000081111561022157600080fd5b82018360208201111561023357600080fd5b8035906020019184600183028401116401000000008311171561025557600080fd5b91908080601f016020809104026020016040519081016040528093929190818152602001838380828437600081840152601f19601f820116905080830192505050505050509192919290803590602001906401000000008111156102b857600080fd5b8201836020820111156102ca57600080fd5b803590602001918460018302840111640100000000831117156102ec57600080fd5b91908080601f016020809104026020016040519081016040528093929190818152602001838380828437600081840152601f19601f8201169050808301925050505050505091929192908035906020019092919080359060200190929190505050611292565b005b34801561036057600080fd5b506103976004803603604081101561037757600080fd5b8101908080359060200190929190803590602001909291905050506114f9565b005b3480156103a557600080fd5b506103d2600480360360208110156103bc57600080fd5b8101908080359060200190929190505050611832565b60405180898152602001806020018873ffffffffffffffffffffffffffffffffffffffff1673ffffffffffffffffffffffffffffffffffffffff168152602001806020018781526020018681526020018581526020018415151515815260200183810383528a818151815260200191508051906020019080838360005b8381101561046a57808201518184015260208101905061044f565b50505050905090810190601f1680156104975780820380516001836020036101000a031916815260200191505b50838103825288818151815260200191508051906020019080838360005b838110156104d05780820151818401526020810190506104b5565b50505050905090810190601f1680156104fd5780820380516001836020036101000a031916815260200191505b509a505050505050505050505060405180910390f35b34801561051f57600080fd5b506105286119d7565b604051808273ffffffffffffffffffffffffffffffffffffffff1673ffffffffffffffffffffffffffffffffffffffff16815260200191505060405180910390f35b34801561057657600080fd5b5061057f6119fc565b6040518082815260200191505060405180910390f35b3480156105a157600080fd5b506105ce600480360360208110156105b857600080fd5b8101908080359060200190929190505050611a02565b005b3480156105dc57600080fd5b50610609600480360360208110156105f357600080fd5b8101908080359060200190929190505050611a6e565b60405180898152602001806020018873ffffffffffffffffffffffffffffffffffffffff1673ffffffffffffffffffffffffffffffffffffffff168152602001871515151581526020018060200186815260200185815260200184815260200183810383528a818151815260200191508051906020019080838360005b838110156106a1578082015181840152602081019050610686565b50505050905090810190601f1680156106ce5780820380516001836020036101000a031916815260200191505b50838103825287818151815260200191508051906020019080838360005b838110156107075780820151818401526020810190506106ec565b50505050905090810190601f1680156107345780820380516001836020036101000a031916815260200191505b509a505050505050505050505060405180910390f35b34801561075657600080fd5b506108bb6004803603608081101561076d57600080fd5b810190808035906020019064010000000081111561078a57600080fd5b82018360208201111561079c57600080fd5b803590602001918460018302840111640100000000831117156107be57600080fd5b91908080601f016020809104026020016040519081016040528093929190818152602001838380828437600081840152601f19601f8201169050808301925050505050505091929192908035906020019064010000000081111561082157600080fd5b82018360208201111561083357600080fd5b8035906020019184600183028401116401000000008311171561085557600080fd5b91908080601f016020809104026020016040519081016040528093929190818152602001838380828437600081840152601f19601f8201169050808301925050505050505091929192908035906020019092919080359060200190929190505050611c13565b005b610a37600480360360808110156108d357600080fd5b81019080803590602001906401000000008111156108f057600080fd5b82018360208201111561090257600080fd5b8035906020019184600183028401116401000000008311171561092457600080fd5b91908080601f016020809104026020016040519081016040528093929190818152602001838380828437600081840152601f19601f82011690508083019250505050505050919291929080359060200190929190803573ffffffffffffffffffffffffffffffffffffffff169060200190929190803590602001906401000000008111156109b157600080fd5b8201836020820111156109c357600080fd5b803590602001918460018302840111640100000000831117156109e557600080fd5b91908080601f016020809104026020016040519081016040528093929190818152602001838380828437600081840152601f19601f820116905080830192505050505050509192919290505050611e7a565b005b348015610a4557600080fd5b50610a4e612288565b6040518082815260200191505060405180910390f35b348015610a7057600080fd5b50610a9d60048036036020811015610a8757600080fd5b810190808035906020019092919050505061228e565b005b348015610aab57600080fd5b50610ad860048036036020811015610ac257600080fd5b810190808035906020019092919050505061231f565b60405180806020018060200184151515158152602001838103835286818151815260200191508051906020019080838360005b83811015610b26578082015181840152602081019050610b0b565b50505050905090810190601f168015610b535780820380516001836020036101000a031916815260200191505b50838103825285818151815260200191508051906020019080838360005b83811015610b8c578082015181840152602081019050610b71565b50505050905090810190601f168015610bb95780820380516001836020036101000a031916815260200191505b509550505050505060405180910390f35b348015610bd657600080fd5b50610bdf612512565b604051808273ffffffffffffffffffffffffffffffffffffffff1673ffffffffffffffffffffffffffffffffffffffff16815260200191505060405180910390f35b348015610c2d57600080fd5b50610c7060048036036020811015610c4457600080fd5b81019080803573ffffffffffffffffffffffffffffffffffffffff16906020019092919050505061253b565b60405180898152602001806020018873ffffffffffffffffffffffffffffffffffffffff1673ffffffffffffffffffffffffffffffffffffffff168152602001871515151581526020018060200186815260200185815260200184815260200183810383528a818151815260200191508051906020019080838360005b83811015610d08578082015181840152602081019050610ced565b50505050905090810190601f168015610d355780820380516001836020036101000a031916815260200191505b50838103825287818151815260200191508051906020019080838360005b83811015610d6e578082015181840152602081019050610d53565b50505050905090810190601f168015610d9b5780820380516001836020036101000a031916815260200191505b509a505050505050505050505060405180910390f35b610dfd60048036036040811015610dc757600080fd5b81019080803573ffffffffffffffffffffffffffffffffffffffff169060200190929190803590602001909291905050506126e0565b005b348015610e0b57600080fd5b50610e146129ec565b6040518082815260200191505060405180910390f35b348015610e3657600080fd5b50610e3f6129f2565b6040518082815260200191505060405180910390f35b348015610e6157600080fd5b50610ea460048036036020811015610e7857600080fd5b81019080803573ffffffffffffffffffffffffffffffffffffffff1690602001909291905050506129f8565b60405180898152602001806020018873ffffffffffffffffffffffffffffffffffffffff1673ffffffffffffffffffffffffffffffffffffffff168152602001806020018781526020018681526020018581526020018415151515815260200183810383528a818151815260200191508051906020019080838360005b83811015610f3c578082015181840152602081019050610f21565b50505050905090810190601f168015610f695780820380516001836020036101000a031916815260200191505b50838103825288818151815260200191508051906020019080838360005b83811015610fa2578082015181840152602081019050610f87565b50505050905090810190601f168015610fcf5780820380516001836020036101000a031916815260200191505b509a505050505050505050505060405180910390f35b610fed612b9d565b6040518060e0016040528060025481526020018381526020013373ffffffffffffffffffffffffffffffffffffffff1681526020016040518060400160405280600e81526020017f4e6f742056616363696e6174656400000000000000000000000000000000000081525081526020016000151581526020016000815260200160011515815250905080600a600060025481526020019081526020016000206000820151816000015560208201518160010190805190602001906110b2929190612bf4565b5060408201518160020160006101000a81548173ffffffffffffffffffffffffffffffffffffffff021916908373ffffffffffffffffffffffffffffffffffffffff1602179055506060820151816003019080519060200190611116929190612bf4565b5060808201518160040160006101000a81548160ff02191690831515021790555060a0820151816005015560c08201518160060160006101000a81548160ff02191690831515021790555090505080600960003373ffffffffffffffffffffffffffffffffffffffff1673ffffffffffffffffffffffffffffffffffffffff1681526020019081526020016000206000820151816000015560208201518160010190805190602001906111ca929190612bf4565b5060408201518160020160006101000a81548173ffffffffffffffffffffffffffffffffffffffff021916908373ffffffffffffffffffffffffffffffffffffffff160217905550606082015181600301908051906020019061122e929190612bf4565b5060808201518160040160006101000a81548160ff02191690831515021790555060a0820151816005015560c08201518160060160006101000a81548160ff0219169083151502179055509050506002600081548092919060010191905055505050565b61129a612c74565b60405180610100016040528060035481526020018681526020013373ffffffffffffffffffffffffffffffffffffffff1681526020016000151581526020018581526020016000815260200184815260200183815250905080600760003373ffffffffffffffffffffffffffffffffffffffff1673ffffffffffffffffffffffffffffffffffffffff168152602001908152602001600020600082015181600001556020820151816001019080519060200190611358929190612bf4565b5060408201518160020160006101000a81548173ffffffffffffffffffffffffffffffffffffffff021916908373ffffffffffffffffffffffffffffffffffffffff16021790555060608201518160020160146101000a81548160ff02191690831515021790555060808201518160030190805190602001906113dc929190612bf4565b5060a0820151816004015560c0820151816005015560e082015181600601559050508060086000600354815260200190815260200160002060008201518160000155602082015181600101908051906020019061143a929190612bf4565b5060408201518160020160006101000a81548173ffffffffffffffffffffffffffffffffffffffff021916908373ffffffffffffffffffffffffffffffffffffffff16021790555060608201518160020160146101000a81548160ff02191690831515021790555060808201518160030190805190602001906114be929190612bf4565b5060a0820151816004015560c0820151816005015560e082015181600601559050506003600081548092919060010191905055505050505050565b6000600760003373ffffffffffffffffffffffffffffffffffffffff1673ffffffffffffffffffffffffffffffffffffffff16815260200190815260200160002090508060020160009054906101000a900473ffffffffffffffffffffffffffffffffffffffff1673ffffffffffffffffffffffffffffffffffffffff163373ffffffffffffffffffffffffffffffffffffffff1614611601576040517f08c379a00000000000000000000000000000000000000000000000000000000081526004018080602001828103825260168152602001807f596f7520617265206e6f7420617574686f72697365640000000000000000000081525060200191505060405180910390fd5b60011515600860008360000154815260200190815260200160002060020160149054906101000a900460ff16151514611685576040517f08c379a0000000000000000000000000000000000000000000000000000000008152600401808060200182810382526025815260200180612e556025913960400191505060405180910390fd5b6000600a60008481526020019081526020016000209050816003018160030190805460018160011615610100020316600290046116c3929190612cd1565b50600181600501540181600501819055508060050154600960008360020160009054906101000a900473ffffffffffffffffffffffffffffffffffffffff1673ffffffffffffffffffffffffffffffffffffffff1673ffffffffffffffffffffffffffffffffffffffff168152602001908152602001600020600501819055506002816005015414156117ed576001600960008360020160009054906101000a900473ffffffffffffffffffffffffffffffffffffffff1673ffffffffffffffffffffffffffffffffffffffff1673ffffffffffffffffffffffffffffffffffffffff16815260200190815260200160002060040160006101000a81548160ff02191690831515021790555060018160040160006101000a81548160ff0219169083151502179055505b600182600401540382600401819055506000600b600086815260200190815260200160002060080160006101000a81548160ff02191690831515021790555050505050565b6006602052806000526040600020600091509050806000015490806001018054600181600116156101000203166002900480601f0160208091040260200160405190810160405280929190818152602001828054600181600116156101000203166002900480156118e45780601f106118b9576101008083540402835291602001916118e4565b820191906000526020600020905b8154815290600101906020018083116118c757829003601f168201915b5050505050908060020160009054906101000a900473ffffffffffffffffffffffffffffffffffffffff1690806003018054600181600116156101000203166002900480601f0160208091040260200160405190810160405280929190818152602001828054600181600116156101000203166002900480156119a85780601f1061197d576101008083540402835291602001916119a8565b820191906000526020600020905b81548152906001019060200180831161198b57829003601f168201915b5050505050908060040154908060050154908060060154908060070160009054906101000a900460ff16905088565b6000809054906101000a900473ffffffffffffffffffffffffffffffffffffffff1681565b60035481565b600060066000600560003373ffffffffffffffffffffffffffffffffffffffff1673ffffffffffffffffffffffffffffffffffffffff16815260200190815260200160002060000154815260200190815260200160002090508181600401540181600401819055505050565b6008602052806000526040600020600091509050806000015490806001018054600181600116156101000203166002900480601f016020809104026020016040519081016040528092919081815260200182805460018160011615610100020316600290048015611b205780601f10611af557610100808354040283529160200191611b20565b820191906000526020600020905b815481529060010190602001808311611b0357829003601f168201915b5050505050908060020160009054906101000a900473ffffffffffffffffffffffffffffffffffffffff16908060020160149054906101000a900460ff1690806003018054600181600116156101000203166002900480601f016020809104026020016040519081016040528092919081815260200182805460018160011615610100020316600290048015611bf75780601f10611bcc57610100808354040283529160200191611bf7565b820191906000526020600020905b815481529060010190602001808311611bda57829003601f168201915b5050505050908060040154908060050154908060060154905088565b611c1b612d58565b60405180610100016040528060015481526020018681526020013373ffffffffffffffffffffffffffffffffffffffff1681526020018581526020016000815260200184815260200183815260200160011515815250905080600560003373ffffffffffffffffffffffffffffffffffffffff1673ffffffffffffffffffffffffffffffffffffffff168152602001908152602001600020600082015181600001556020820151816001019080519060200190611cd9929190612bf4565b5060408201518160020160006101000a81548173ffffffffffffffffffffffffffffffffffffffff021916908373ffffffffffffffffffffffffffffffffffffffff1602179055506060820151816003019080519060200190611d3d929190612bf4565b506080820151816004015560a0820151816005015560c0820151816006015560e08201518160070160006101000a81548160ff02191690831515021790555090505080600660006001548152602001908152602001600020600082015181600001556020820151816001019080519060200190611dbb929190612bf4565b5060408201518160020160006101000a81548173ffffffffffffffffffffffffffffffffffffffff021916908373ffffffffffffffffffffffffffffffffffffffff1602179055506060820151816003019080519060200190611e1f929190612bf4565b506080820151816004015560a0820151816005015560c0820151816006015560e08201518160070160006101000a81548160ff0219169083151502179055509050506001600081548092919060010191905055505050505050565b60001515600960003373ffffffffffffffffffffffffffffffffffffffff1673ffffffffffffffffffffffffffffffffffffffff16815260200190815260200160002060040160009054906101000a900460ff16151514611f43576040517f08c379a000000000000000000000000000000000000000000000000000000000815260040180806020018281038252601b8152602001807f596f752061726520616c72656164792076616363696e6174656421000000000081525060200191505060405180910390fd5b6001600760008473ffffffffffffffffffffffffffffffffffffffff1673ffffffffffffffffffffffffffffffffffffffff168152602001908152602001600020600401541015611ffc576040517f08c379a00000000000000000000000000000000000000000000000000000000081526004018080602001828103825260108152602001807f4e6f7420656e6f7567682073746f636b0000000000000000000000000000000081525060200191505060405180910390fd5b612004612db5565b60405180610120016040528060045481526020018681526020013373ffffffffffffffffffffffffffffffffffffffff168152602001600960003373ffffffffffffffffffffffffffffffffffffffff1673ffffffffffffffffffffffffffffffffffffffff1681526020019081526020016000206000015481526020018473ffffffffffffffffffffffffffffffffffffffff1681526020018581526020018381526020016001600960003373ffffffffffffffffffffffffffffffffffffffff1673ffffffffffffffffffffffffffffffffffffffff1681526020019081526020016000206005015401815260200160001515815250905080600b6000600454815260200190815260200160002060008201518160000155602082015181600101908051906020019061213a929190612bf4565b5060408201518160020160006101000a81548173ffffffffffffffffffffffffffffffffffffffff021916908373ffffffffffffffffffffffffffffffffffffffff1602179055506060820151816003015560808201518160040160006101000a81548173ffffffffffffffffffffffffffffffffffffffff021916908373ffffffffffffffffffffffffffffffffffffffff16021790555060a0820151816005015560c08201518160060190805190602001906121f9929190612bf4565b5060e082015181600701556101008201518160080160006101000a81548160ff0219169083151502179055509050506004600081548092919060010191905055508273ffffffffffffffffffffffffffffffffffffffff166108fc349081150290604051600060405180830381858888f19350505050158015612280573d6000803e3d6000fd5b505050505050565b60025481565b6000809054906101000a900473ffffffffffffffffffffffffffffffffffffffff1673ffffffffffffffffffffffffffffffffffffffff163373ffffffffffffffffffffffffffffffffffffffff16146122e757600080fd5b600060086000838152602001908152602001600020905060018160020160146101000a81548160ff0219169083151502179055505050565b60608060008060009054906101000a900473ffffffffffffffffffffffffffffffffffffffff1673ffffffffffffffffffffffffffffffffffffffff163373ffffffffffffffffffffffffffffffffffffffff161461237d57600080fd5b600a6000858152602001908152602001600020600101600a6000868152602001908152602001600020600301600a600087815260200190815260200160002060040160009054906101000a900460ff16828054600181600116156101000203166002900480601f0160208091040260200160405190810160405280929190818152602001828054600181600116156101000203166002900480156124625780601f1061243757610100808354040283529160200191612462565b820191906000526020600020905b81548152906001019060200180831161244557829003601f168201915b50505050509250818054600181600116156101000203166002900480601f0160208091040260200160405190810160405280929190818152602001828054600181600116156101000203166002900480156124fe5780601f106124d3576101008083540402835291602001916124fe565b820191906000526020600020905b8154815290600101906020018083116124e157829003601f168201915b505050505091509250925092509193909250565b60008060009054906101000a900473ffffffffffffffffffffffffffffffffffffffff16905090565b6007602052806000526040600020600091509050806000015490806001018054600181600116156101000203166002900480601f0160208091040260200160405190810160405280929190818152602001828054600181600116156101000203166002900480156125ed5780601f106125c2576101008083540402835291602001916125ed565b820191906000526020600020905b8154815290600101906020018083116125d057829003601f168201915b5050505050908060020160009054906101000a900473ffffffffffffffffffffffffffffffffffffffff16908060020160149054906101000a900460ff1690806003018054600181600116156101000203166002900480601f0160208091040260200160405190810160405280929190818152602001828054600181600116156101000203166002900480156126c45780601f10612699576101008083540402835291602001916126c4565b820191906000526020600020905b8154815290600101906020018083116126a757829003601f168201915b5050505050908060040154908060050154908060060154905088565b6126e8612d58565b600560008473ffffffffffffffffffffffffffffffffffffffff1673ffffffffffffffffffffffffffffffffffffffff1681526020019081526020016000206040518061010001604052908160008201548152602001600182018054600181600116156101000203166002900480601f0160208091040260200160405190810160405280929190818152602001828054600181600116156101000203166002900480156127d65780601f106127ab576101008083540402835291602001916127d6565b820191906000526020600020905b8154815290600101906020018083116127b957829003601f168201915b505050505081526020016002820160009054906101000a900473ffffffffffffffffffffffffffffffffffffffff1673ffffffffffffffffffffffffffffffffffffffff1673ffffffffffffffffffffffffffffffffffffffff168152602001600382018054600181600116156101000203166002900480601f0160208091040260200160405190810160405280929190818152602001828054600181600116156101000203166002900480156128ce5780601f106128a3576101008083540402835291602001916128ce565b820191906000526020600020905b8154815290600101906020018083116128b157829003601f168201915b505050505081526020016004820154815260200160058201548152602001600682015481526020016007820160009054906101000a900460ff1615151515815250509050806080015182111561298c576040517f08c379a000000000000000000000000000000000000000000000000000000000815260040180806020018281038252601d8152602001807f4e6f7420656e6f756768207175616e7469747920617661696c61626c6500000081525060200191505060405180910390fd5b81816080015103816080018181525050806040015173ffffffffffffffffffffffffffffffffffffffff166108fc349081150290604051600060405180830381858888f193505050501580156129e6573d6000803e3d6000fd5b50505050565b60015481565b60045481565b6005602052806000526040600020600091509050806000015490806001018054600181600116156101000203166002900480601f016020809104026020016040519081016040528092919081815260200182805460018160011615610100020316600290048015612aaa5780601f10612a7f57610100808354040283529160200191612aaa565b820191906000526020600020905b815481529060010190602001808311612a8d57829003601f168201915b5050505050908060020160009054906101000a900473ffffffffffffffffffffffffffffffffffffffff1690806003018054600181600116156101000203166002900480601f016020809104026020016040519081016040528092919081815260200182805460018160011615610100020316600290048015612b6e5780601f10612b4357610100808354040283529160200191612b6e565b820191906000526020600020905b815481529060010190602001808311612b5157829003601f168201915b5050505050908060040154908060050154908060060154908060070160009054906101000a900460ff16905088565b6040518060e001604052806000815260200160608152602001600073ffffffffffffffffffffffffffffffffffffffff16815260200160608152602001600015158152602001600081526020016000151581525090565b828054600181600116156101000203166002900490600052602060002090601f016020900481019282601f10612c3557805160ff1916838001178555612c63565b82800160010185558215612c63579182015b82811115612c62578251825591602001919060010190612c47565b5b509050612c709190612e2f565b5090565b6040518061010001604052806000815260200160608152602001600073ffffffffffffffffffffffffffffffffffffffff168152602001600015158152602001606081526020016000815260200160008152602001600081525090565b828054600181600116156101000203166002900490600052602060002090601f016020900481019282601f10612d0a5780548555612d47565b82800160010185558215612d4757600052602060002091601f016020900482015b82811115612d46578254825591600101919060010190612d2b565b5b509050612d549190612e2f565b5090565b6040518061010001604052806000815260200160608152602001600073ffffffffffffffffffffffffffffffffffffffff168152602001606081526020016000815260200160008152602001600081526020016000151581525090565b6040518061012001604052806000815260200160608152602001600073ffffffffffffffffffffffffffffffffffffffff16815260200160008152602001600073ffffffffffffffffffffffffffffffffffffffff1681526020016000815260200160608152602001600081526020016000151581525090565b612e5191905b80821115612e4d576000816000905550600101612e35565b5090565b9056fe486f73706974616c206e6f7420617574686f726973656420627920676f7665726e6d656e74a265627a7a723158207a0873979eecd2bc2d2f85c50bf8398df689fba96145e856ef5d1b027c7e952964736f6c63430005100032",
  "source": "// SPDX-License-Identifier: MIT\n\npragma solidity >=0.5.0;\n\ncontract VacSeen {\n\n    // ---GOVERNMENT CONTROL---\n    // Government\n    address public government;\n    \n    // Set the contract creator as government\n    constructor() public {\n        government = msg.sender;\n    }\n    \n    // Returrn the government's public addrerss\n    function getGovernment() public view returns (address) {\n        return government;\n    }\n    \n    // Get status of citizen - only government can access this data\n    function getCitizenStatus(uint index) public view onlyGovernment returns (string memory, string memory, bool) {\n        return (Citizens[index].name, Citizens[index].vaccine, Citizens[index].vaccinated);\n    }\n    \n    // Grant hospital permission to vaccinate\n    function validateHospital(uint hospitalId) public onlyGovernment {\n        Hospital storage hospital = HospitalsID[hospitalId]; // Fetch associated hospital\n        hospital.isValidated = true; // Validate hospital\n    }\n    \n    // Custom modifier to enable only the government to access certain data\n    modifier onlyGovernment() {\n        require(msg.sender == government);\n        _;\n    }\n    // ---END GOVERNMENT CONTROL---\n    \n    \n    \n    // ---VARIABLES---\n    // Variables to keep track of instance counts\n    uint public manufacturerCount;\n    uint public citizenCount;\n    uint public hospitalCount;\n    uint public appointmentCount;\n    \n    // Mappings to keep track of structs\n    mapping(address => Manufacturer) public Manufacturers; // Mapping that holds records of all manufacturers\n    mapping(uint => Manufacturer) public ManufacturersID; // Mapping that holds records of all manufacturers by id\n    mapping(address => Hospital) public Hospitals; // Mapping that holds records of all hospitals\n    mapping(uint => Hospital) public HospitalsID; // Mapping that holds records of all hospitals by id\n    mapping(address => Citizen) CitizensAddress; // Mapping that holds records of all citizens by address\n    mapping(uint => Citizen) Citizens; // Mapping that holds records of all citizens \n    mapping(uint => Appointment) Appointments; // Mapping that holds records of all appointments \n\n    // Structs for Hospital, Manufacturers, Citizens and Appointments\n    struct Hospital {\n        uint id;\n        string name;\n        address payable owner;\n        bool isValidated;\n        string vaccine;\n        uint stock;\n        uint nabhID;\n        uint doseCost;\n    }\n    \n    struct Manufacturer {\n        uint id;\n        string name;\n        address payable owner;\n        string vaccine;\n        uint capacity;\n        uint gstNo;\n        uint doseCost;\n        bool isCreated;\n    }\n    \n    struct Citizen {\n        uint id;\n        string name;\n        address publicAddress;\n        string vaccine;\n        bool vaccinated;\n        uint doses;\n        bool isCreated;\n    }\n    \n    struct Appointment {\n        uint id;\n        string date;\n        address citizen;\n        uint citizenId;\n        address payable hospital;\n        uint hospitalId;\n        string vaccine;\n        uint doseCount;\n        bool vaccinated;\n    }\n    // ---END VARIABLES---\n    \n    \n    \n    // ---CITIZEN METHODS---\n    // Citizen register themselves for vaccination\n    function registerCitizen(string memory name) public {\n        Citizen memory citizen = Citizen(citizenCount, name, msg.sender, \"Not Vaccinated\", false, 0, true); // Create new citizen \n        Citizens[citizenCount] = citizen; // Pass instance to mapping\n        CitizensAddress[msg.sender] = citizen; // Pass instance to mapping\n        citizenCount++; // Increment identifier for subsequent creation\n    }\n    \n    // Citizens book vaccination slot\n    function bookAppointment(string memory date, uint hospitalID, address payable hospitalAddress, string memory vaccine) public payable {\n        require(CitizensAddress[msg.sender].vaccinated == false, \"You are already vaccinated!\");\n        require(Hospitals[hospitalAddress].stock >= 1, \"Not enough stock\");\n        Appointment memory appointment = Appointment(appointmentCount, date, msg.sender, CitizensAddress[msg.sender].id, hospitalAddress, \n        hospitalID, vaccine, CitizensAddress[msg.sender].doses+1, false); // Create new appointment\n        Appointments[appointmentCount] = appointment; // Pass instance to mapping\n        appointmentCount++; // Increment identifier for subsequent creation\n        \n        hospitalAddress.transfer(msg.value); // Pay for vaccine\n    }\n    // ---END CITIZEN METHODS---\n    \n    \n    \n    // ---HOSPITAL METHODS---\n    // Register hospital\n    function registerHospital(string memory name, string memory vaccine, uint nabhID, uint doseCost) public {\n        Hospital memory hospital = Hospital(hospitalCount, name, msg.sender, false, vaccine, 0, nabhID, doseCost); // Create new instance variable \n        Hospitals[msg.sender] = hospital; // Pass instance to mapping \n        HospitalsID[hospitalCount] = hospital; // Pass instance to mapping \n        hospitalCount++; // Increment identifier for subsequent creation\n    }\n    \n    // Citizen vaccinated at hospital - only hospitals can do this\n    function vaccinateCitizen(uint appointmentId, uint citizenID) public {\n        Hospital storage hospital = Hospitals[msg.sender]; // Fetch associated hospital\n        \n        require(msg.sender == hospital.owner, \"You are not authorised\"); // Only authorised hospitals can vaccinate people\n        require(HospitalsID[hospital.id].isValidated == true , \"Hospital not authorised by government\"); // Only authorised hospitals can vaccinate people\n        \n        Citizen storage citizen = Citizens[citizenID]; // Fetch associated citizen\n        citizen.vaccine = hospital.vaccine; // Set vaccine\n        citizen.doses = citizen.doses + 1; // Increment doses\n        CitizensAddress[citizen.publicAddress].doses = citizen.doses; // Increment doses\n        \n        // Mark citizen as vaccinated if this is second dose\n        if(citizen.doses == 2){\n            CitizensAddress[citizen.publicAddress].vaccinated = true;\n            citizen.vaccinated = true;\n        }\n        \n        hospital.stock = hospital.stock - 1; // Reduce vaccine from stock\n        \n        Appointments[appointmentId].vaccinated = false; // Set appointment as completed\n    }\n    \n    // Place vaccine order\n    function placeVaccineOrder(address manufacturerAddress, uint quantity) payable public {\n        Manufacturer memory manufacturer = Manufacturers[manufacturerAddress];\n        require(quantity <= manufacturer.capacity, \"Not enough quantity available\");\n        manufacturer.capacity = manufacturer.capacity - quantity;\n        \n        manufacturer.owner.transfer(msg.value); // Pay the manufacturer\n    }\n    // ---END HOSPITAL METHODS---\n    \n    \n    \n    /// ---MANUFACTURER METHODS---\n    // Register hospital\n    function registerManufacturer(string memory name, string memory vaccine, uint gstNo, uint doseCost) public {\n        Manufacturer memory manufacturer = Manufacturer(manufacturerCount, name, msg.sender, vaccine, 0, gstNo, doseCost, true); // Create new instance variable \n        Manufacturers[msg.sender] = manufacturer; // Pass instance to mapping \n        ManufacturersID[manufacturerCount] = manufacturer; // Pass instance to mapping \n        manufacturerCount++; // Increment identifier for subsequent creation\n    }\n    \n    function addSupply(uint supply) public {\n        Manufacturer storage manufacturer = ManufacturersID[Manufacturers[msg.sender].id];\n        manufacturer.capacity = manufacturer.capacity + supply;\n    }\n    /// ---END MANUFACTURER METHODS---\n\n}",
  "sourcePath": "/Users/skhiearth/Desktop/VacSeen_Original/VacSeen/src/contracts/VacSeen.sol",
  "compiler": {
    "name": "solc",
    "version": "0.5.16+commit.9c3226ce.Emscripten.clang"
  },
  "schemaVersion": "3.3.4",
  "updatedAt": "2021-05-20T21:05:13.412Z",
  "networkType": "ethereum",
  "devdoc": {
    "methods": {}
  },
  "userdoc": {
    "methods": {
      "registerManufacturer(string,string,uint256,uint256)": {
        "notice": "---MANUFACTURER METHODS---"
      }
    }
  }
}