{
  "contractName": "VacSeen",
  "abi": [
    {
      "inputs": [],
      "payable": false,
      "stateMutability": "nonpayable",
      "type": "constructor"
    },
    {
      "constant": true,
      "inputs": [
        {
          "internalType": "uint256",
          "name": "",
          "type": "uint256"
        }
      ],
      "name": "Citizens",
      "outputs": [
        {
          "internalType": "uint256",
          "name": "id",
          "type": "uint256"
        },
        {
          "internalType": "string",
          "name": "name",
          "type": "string"
        },
        {
          "internalType": "address",
          "name": "publicAddress",
          "type": "address"
        },
        {
          "internalType": "string",
          "name": "vaccine",
          "type": "string"
        },
        {
          "internalType": "bool",
          "name": "vaccinated",
          "type": "bool"
        },
        {
          "internalType": "uint256",
          "name": "doses",
          "type": "uint256"
        },
        {
          "internalType": "bool",
          "name": "isCreated",
          "type": "bool"
        }
      ],
      "payable": false,
      "stateMutability": "view",
      "type": "function"
    },
    {
      "constant": true,
      "inputs": [
        {
          "internalType": "address",
          "name": "",
          "type": "address"
        }
      ],
      "name": "CitizensAddress",
      "outputs": [
        {
          "internalType": "uint256",
          "name": "id",
          "type": "uint256"
        },
        {
          "internalType": "string",
          "name": "name",
          "type": "string"
        },
        {
          "internalType": "address",
          "name": "publicAddress",
          "type": "address"
        },
        {
          "internalType": "string",
          "name": "vaccine",
          "type": "string"
        },
        {
          "internalType": "bool",
          "name": "vaccinated",
          "type": "bool"
        },
        {
          "internalType": "uint256",
          "name": "doses",
          "type": "uint256"
        },
        {
          "internalType": "bool",
          "name": "isCreated",
          "type": "bool"
        }
      ],
      "payable": false,
      "stateMutability": "view",
      "type": "function"
    },
    {
      "constant": true,
      "inputs": [
        {
          "internalType": "address",
          "name": "",
          "type": "address"
        }
      ],
      "name": "Hospitals",
      "outputs": [
        {
          "internalType": "uint256",
          "name": "id",
          "type": "uint256"
        },
        {
          "internalType": "string",
          "name": "name",
          "type": "string"
        },
        {
          "internalType": "address payable",
          "name": "owner",
          "type": "address"
        },
        {
          "internalType": "bool",
          "name": "isValidated",
          "type": "bool"
        },
        {
          "internalType": "string",
          "name": "vaccine",
          "type": "string"
        },
        {
          "internalType": "uint256",
          "name": "stock",
          "type": "uint256"
        },
        {
          "internalType": "uint256",
          "name": "nabhID",
          "type": "uint256"
        },
        {
          "internalType": "uint256",
          "name": "doseCost",
          "type": "uint256"
        }
      ],
      "payable": false,
      "stateMutability": "view",
      "type": "function"
    },
    {
      "constant": true,
      "inputs": [
        {
          "internalType": "uint256",
          "name": "",
          "type": "uint256"
        }
      ],
      "name": "HospitalsID",
      "outputs": [
        {
          "internalType": "uint256",
          "name": "id",
          "type": "uint256"
        },
        {
          "internalType": "string",
          "name": "name",
          "type": "string"
        },
        {
          "internalType": "address payable",
          "name": "owner",
          "type": "address"
        },
        {
          "internalType": "bool",
          "name": "isValidated",
          "type": "bool"
        },
        {
          "internalType": "string",
          "name": "vaccine",
          "type": "string"
        },
        {
          "internalType": "uint256",
          "name": "stock",
          "type": "uint256"
        },
        {
          "internalType": "uint256",
          "name": "nabhID",
          "type": "uint256"
        },
        {
          "internalType": "uint256",
          "name": "doseCost",
          "type": "uint256"
        }
      ],
      "payable": false,
      "stateMutability": "view",
      "type": "function"
    },
    {
      "constant": true,
      "inputs": [
        {
          "internalType": "address",
          "name": "",
          "type": "address"
        }
      ],
      "name": "Manufacturers",
      "outputs": [
        {
          "internalType": "uint256",
          "name": "id",
          "type": "uint256"
        },
        {
          "internalType": "string",
          "name": "name",
          "type": "string"
        },
        {
          "internalType": "address payable",
          "name": "owner",
          "type": "address"
        },
        {
          "internalType": "string",
          "name": "vaccine",
          "type": "string"
        },
        {
          "internalType": "uint256",
          "name": "capacity",
          "type": "uint256"
        },
        {
          "internalType": "uint256",
          "name": "gstNo",
          "type": "uint256"
        },
        {
          "internalType": "uint256",
          "name": "doseCost",
          "type": "uint256"
        },
        {
          "internalType": "bool",
          "name": "isCreated",
          "type": "bool"
        }
      ],
      "payable": false,
      "stateMutability": "view",
      "type": "function"
    },
    {
      "constant": true,
      "inputs": [
        {
          "internalType": "uint256",
          "name": "",
          "type": "uint256"
        }
      ],
      "name": "ManufacturersID",
      "outputs": [
        {
          "internalType": "uint256",
          "name": "id",
          "type": "uint256"
        },
        {
          "internalType": "string",
          "name": "name",
          "type": "string"
        },
        {
          "internalType": "address payable",
          "name": "owner",
          "type": "address"
        },
        {
          "internalType": "string",
          "name": "vaccine",
          "type": "string"
        },
        {
          "internalType": "uint256",
          "name": "capacity",
          "type": "uint256"
        },
        {
          "internalType": "uint256",
          "name": "gstNo",
          "type": "uint256"
        },
        {
          "internalType": "uint256",
          "name": "doseCost",
          "type": "uint256"
        },
        {
          "internalType": "bool",
          "name": "isCreated",
          "type": "bool"
        }
      ],
      "payable": false,
      "stateMutability": "view",
      "type": "function"
    },
    {
      "constant": true,
      "inputs": [],
      "name": "appointmentCount",
      "outputs": [
        {
          "internalType": "uint256",
          "name": "",
          "type": "uint256"
        }
      ],
      "payable": false,
      "stateMutability": "view",
      "type": "function"
    },
    {
      "constant": true,
      "inputs": [],
      "name": "citizenCount",
      "outputs": [
        {
          "internalType": "uint256",
          "name": "",
          "type": "uint256"
        }
      ],
      "payable": false,
      "stateMutability": "view",
      "type": "function"
    },
    {
      "constant": true,
      "inputs": [],
      "name": "hospitalCount",
      "outputs": [
        {
          "internalType": "uint256",
          "name": "",
          "type": "uint256"
        }
      ],
      "payable": false,
      "stateMutability": "view",
      "type": "function"
    },
    {
      "constant": true,
      "inputs": [],
      "name": "manufacturerCount",
      "outputs": [
        {
          "internalType": "uint256",
          "name": "",
          "type": "uint256"
        }
      ],
      "payable": false,
      "stateMutability": "view",
      "type": "function"
    },
    {
      "constant": true,
      "inputs": [],
      "name": "getGovernment",
      "outputs": [
        {
          "internalType": "address",
          "name": "",
          "type": "address"
        }
      ],
      "payable": false,
      "stateMutability": "view",
      "type": "function"
    },
    {
      "constant": true,
      "inputs": [
        {
          "internalType": "uint256",
          "name": "index",
          "type": "uint256"
        }
      ],
      "name": "getCitizenStatus",
      "outputs": [
        {
          "internalType": "string",
          "name": "",
          "type": "string"
        },
        {
          "internalType": "string",
          "name": "",
          "type": "string"
        },
        {
          "internalType": "bool",
          "name": "",
          "type": "bool"
        }
      ],
      "payable": false,
      "stateMutability": "view",
      "type": "function"
    },
    {
      "constant": false,
      "inputs": [
        {
          "internalType": "uint256",
          "name": "hospitalId",
          "type": "uint256"
        }
      ],
      "name": "validateHospital",
      "outputs": [],
      "payable": false,
      "stateMutability": "nonpayable",
      "type": "function"
    },
    {
      "constant": false,
      "inputs": [
        {
          "internalType": "string",
          "name": "name",
          "type": "string"
        }
      ],
      "name": "registerCitizen",
      "outputs": [],
      "payable": false,
      "stateMutability": "nonpayable",
      "type": "function"
    },
    {
      "constant": false,
      "inputs": [
        {
          "internalType": "string",
          "name": "date",
          "type": "string"
        },
        {
          "internalType": "uint256",
          "name": "hospitalID",
          "type": "uint256"
        },
        {
          "internalType": "address payable",
          "name": "hospitalAddress",
          "type": "address"
        },
        {
          "internalType": "string",
          "name": "vaccine",
          "type": "string"
        }
      ],
      "name": "bookAppointment",
      "outputs": [],
      "payable": true,
      "stateMutability": "payable",
      "type": "function"
    },
    {
      "constant": false,
      "inputs": [
        {
          "internalType": "string",
          "name": "name",
          "type": "string"
        },
        {
          "internalType": "string",
          "name": "vaccine",
          "type": "string"
        },
        {
          "internalType": "uint256",
          "name": "nabhID",
          "type": "uint256"
        },
        {
          "internalType": "uint256",
          "name": "doseCost",
          "type": "uint256"
        }
      ],
      "name": "registerHospital",
      "outputs": [],
      "payable": false,
      "stateMutability": "nonpayable",
      "type": "function"
    },
    {
      "constant": false,
      "inputs": [
        {
          "internalType": "uint256",
          "name": "appointmentId",
          "type": "uint256"
        },
        {
          "internalType": "uint256",
          "name": "citizenID",
          "type": "uint256"
        }
      ],
      "name": "vaccinateCitizen",
      "outputs": [],
      "payable": false,
      "stateMutability": "nonpayable",
      "type": "function"
    },
    {
      "constant": false,
      "inputs": [
        {
          "internalType": "address payable",
          "name": "manufacturerAddress",
          "type": "address"
        },
        {
          "internalType": "uint256",
          "name": "quantity",
          "type": "uint256"
        }
      ],
      "name": "placeVaccineOrder",
      "outputs": [],
      "payable": true,
      "stateMutability": "payable",
      "type": "function"
    },
    {
      "constant": false,
      "inputs": [
        {
          "internalType": "string",
          "name": "name",
          "type": "string"
        },
        {
          "internalType": "string",
          "name": "vaccine",
          "type": "string"
        },
        {
          "internalType": "uint256",
          "name": "gstNo",
          "type": "uint256"
        },
        {
          "internalType": "uint256",
          "name": "doseCost",
          "type": "uint256"
        }
      ],
      "name": "registerManufacturer",
      "outputs": [],
      "payable": false,
      "stateMutability": "nonpayable",
      "type": "function"
    },
    {
      "constant": false,
      "inputs": [
        {
          "internalType": "uint256",
          "name": "supply",
          "type": "uint256"
        }
      ],
      "name": "addSupply",
      "outputs": [],
      "payable": false,
      "stateMutability": "nonpayable",
      "type": "function"
    }
  ],
  "bytecode": "0x608060405234801561001057600080fd5b50336000806101000a81548173ffffffffffffffffffffffffffffffffffffffff021916908373ffffffffffffffffffffffffffffffffffffffff1602179055506134fe806100606000396000f3fe60806040526004361061011f5760003560e01c806367dafe19116100a0578063bb58e40d11610064578063bb58e40d14610edc578063be0c6f1c14610f2a578063e7085d7d14610f55578063eebc3fb2146110e2578063f71350f61461110d5761011f565b806367dafe1914610a185780637e2e038b14610a535780637fad2c2314610bca57806381b4690d14610cf5578063a549a4ed14610d4c5761011f565b806340753a76116100e757806340753a76146105495780634155849d14610584578063448a6e9b146106fe5780634c56ad35146108715780635b4c777d146109ed5761011f565b80630297f0b31461012457806309b7b88a146101ec5780630c99052b1461035f5780630dc3b5da146103a4578063350dadb71461051e575b600080fd5b34801561013057600080fd5b506101ea6004803603602081101561014757600080fd5b810190808035906020019064010000000081111561016457600080fd5b82018360208201111561017657600080fd5b8035906020019184600183028401116401000000008311171561019857600080fd5b91908080601f016020809104026020016040519081016040528093929190818152602001838380828437600081840152601f19601f82011690508083019250505050505050919291929050505061129d565b005b3480156101f857600080fd5b5061035d6004803603608081101561020f57600080fd5b810190808035906020019064010000000081111561022c57600080fd5b82018360208201111561023e57600080fd5b8035906020019184600183028401116401000000008311171561026057600080fd5b91908080601f016020809104026020016040519081016040528093929190818152602001838380828437600081840152601f19601f820116905080830192505050505050509192919290803590602001906401000000008111156102c357600080fd5b8201836020820111156102d557600080fd5b803590602001918460018302840111640100000000831117156102f757600080fd5b91908080601f016020809104026020016040519081016040528093929190818152602001838380828437600081840152601f19601f820116905080830192505050505050509192919290803590602001909291908035906020019092919050505061154a565b005b34801561036b57600080fd5b506103a26004803603604081101561038257600080fd5b8101908080359060200190929190803590602001909291905050506117b1565b005b3480156103b057600080fd5b506103dd600480360360208110156103c757600080fd5b8101908080359060200190929190505050611aea565b60405180898152602001806020018873ffffffffffffffffffffffffffffffffffffffff1673ffffffffffffffffffffffffffffffffffffffff168152602001806020018781526020018681526020018581526020018415151515815260200183810383528a818151815260200191508051906020019080838360005b8381101561047557808201518184015260208101905061045a565b50505050905090810190601f1680156104a25780820380516001836020036101000a031916815260200191505b50838103825288818151815260200191508051906020019080838360005b838110156104db5780820151818401526020810190506104c0565b50505050905090810190601f1680156105085780820380516001836020036101000a031916815260200191505b509a505050505050505050505060405180910390f35b34801561052a57600080fd5b50610533611c8f565b6040518082815260200191505060405180910390f35b34801561055557600080fd5b506105826004803603602081101561056c57600080fd5b8101908080359060200190929190505050611c95565b005b34801561059057600080fd5b506105bd600480360360208110156105a757600080fd5b8101908080359060200190929190505050611d01565b60405180898152602001806020018873ffffffffffffffffffffffffffffffffffffffff1673ffffffffffffffffffffffffffffffffffffffff168152602001871515151581526020018060200186815260200185815260200184815260200183810383528a818151815260200191508051906020019080838360005b8381101561065557808201518184015260208101905061063a565b50505050905090810190601f1680156106825780820380516001836020036101000a031916815260200191505b50838103825287818151815260200191508051906020019080838360005b838110156106bb5780820151818401526020810190506106a0565b50505050905090810190601f1680156106e85780820380516001836020036101000a031916815260200191505b509a505050505050505050505060405180910390f35b34801561070a57600080fd5b5061086f6004803603608081101561072157600080fd5b810190808035906020019064010000000081111561073e57600080fd5b82018360208201111561075057600080fd5b8035906020019184600183028401116401000000008311171561077257600080fd5b91908080601f016020809104026020016040519081016040528093929190818152602001838380828437600081840152601f19601f820116905080830192505050505050509192919290803590602001906401000000008111156107d557600080fd5b8201836020820111156107e757600080fd5b8035906020019184600183028401116401000000008311171561080957600080fd5b91908080601f016020809104026020016040519081016040528093929190818152602001838380828437600081840152601f19601f8201169050808301925050505050505091929192908035906020019092919080359060200190929190505050611ea6565b005b6109eb6004803603608081101561088757600080fd5b81019080803590602001906401000000008111156108a457600080fd5b8201836020820111156108b657600080fd5b803590602001918460018302840111640100000000831117156108d857600080fd5b91908080601f016020809104026020016040519081016040528093929190818152602001838380828437600081840152601f19601f82011690508083019250505050505050919291929080359060200190929190803573ffffffffffffffffffffffffffffffffffffffff1690602001909291908035906020019064010000000081111561096557600080fd5b82018360208201111561097757600080fd5b8035906020019184600183028401116401000000008311171561099957600080fd5b91908080601f016020809104026020016040519081016040528093929190818152602001838380828437600081840152601f19601f82011690508083019250505050505050919291929050505061210d565b005b3480156109f957600080fd5b50610a0261251b565b6040518082815260200191505060405180910390f35b348015610a2457600080fd5b50610a5160048036036020811015610a3b57600080fd5b8101908080359060200190929190505050612521565b005b348015610a5f57600080fd5b50610a8c60048036036020811015610a7657600080fd5b81019080803590602001909291905050506125b2565b60405180888152602001806020018773ffffffffffffffffffffffffffffffffffffffff1673ffffffffffffffffffffffffffffffffffffffff168152602001806020018615151515815260200185815260200184151515158152602001838103835289818151815260200191508051906020019080838360005b83811015610b22578082015181840152602081019050610b07565b50505050905090810190601f168015610b4f5780820380516001836020036101000a031916815260200191505b50838103825287818151815260200191508051906020019080838360005b83811015610b88578082015181840152602081019050610b6d565b50505050905090810190601f168015610bb55780820380516001836020036101000a031916815260200191505b50995050505050505050505060405180910390f35b348015610bd657600080fd5b50610c0360048036036020811015610bed57600080fd5b810190808035906020019092919050505061275e565b60405180806020018060200184151515158152602001838103835286818151815260200191508051906020019080838360005b83811015610c51578082015181840152602081019050610c36565b50505050905090810190601f168015610c7e5780820380516001836020036101000a031916815260200191505b50838103825285818151815260200191508051906020019080838360005b83811015610cb7578082015181840152602081019050610c9c565b50505050905090810190601f168015610ce45780820380516001836020036101000a031916815260200191505b509550505050505060405180910390f35b348015610d0157600080fd5b50610d0a612951565b604051808273ffffffffffffffffffffffffffffffffffffffff1673ffffffffffffffffffffffffffffffffffffffff16815260200191505060405180910390f35b348015610d5857600080fd5b50610d9b60048036036020811015610d6f57600080fd5b81019080803573ffffffffffffffffffffffffffffffffffffffff16906020019092919050505061297a565b60405180898152602001806020018873ffffffffffffffffffffffffffffffffffffffff1673ffffffffffffffffffffffffffffffffffffffff168152602001871515151581526020018060200186815260200185815260200184815260200183810383528a818151815260200191508051906020019080838360005b83811015610e33578082015181840152602081019050610e18565b50505050905090810190601f168015610e605780820380516001836020036101000a031916815260200191505b50838103825287818151815260200191508051906020019080838360005b83811015610e99578082015181840152602081019050610e7e565b50505050905090810190601f168015610ec65780820380516001836020036101000a031916815260200191505b509a505050505050505050505060405180910390f35b610f2860048036036040811015610ef257600080fd5b81019080803573ffffffffffffffffffffffffffffffffffffffff16906020019092919080359060200190929190505050612b1f565b005b348015610f3657600080fd5b50610f3f612e90565b6040518082815260200191505060405180910390f35b348015610f6157600080fd5b50610fa460048036036020811015610f7857600080fd5b81019080803573ffffffffffffffffffffffffffffffffffffffff169060200190929190505050612e96565b60405180888152602001806020018773ffffffffffffffffffffffffffffffffffffffff1673ffffffffffffffffffffffffffffffffffffffff168152602001806020018615151515815260200185815260200184151515158152602001838103835289818151815260200191508051906020019080838360005b8381101561103a57808201518184015260208101905061101f565b50505050905090810190601f1680156110675780820380516001836020036101000a031916815260200191505b50838103825287818151815260200191508051906020019080838360005b838110156110a0578082015181840152602081019050611085565b50505050905090810190601f1680156110cd5780820380516001836020036101000a031916815260200191505b50995050505050505050505060405180910390f35b3480156110ee57600080fd5b506110f7613042565b6040518082815260200191505060405180910390f35b34801561111957600080fd5b5061115c6004803603602081101561113057600080fd5b81019080803573ffffffffffffffffffffffffffffffffffffffff169060200190929190505050613048565b60405180898152602001806020018873ffffffffffffffffffffffffffffffffffffffff1673ffffffffffffffffffffffffffffffffffffffff168152602001806020018781526020018681526020018581526020018415151515815260200183810383528a818151815260200191508051906020019080838360005b838110156111f45780820151818401526020810190506111d9565b50505050905090810190601f1680156112215780820380516001836020036101000a031916815260200191505b50838103825288818151815260200191508051906020019080838360005b8381101561125a57808201518184015260208101905061123f565b50505050905090810190601f1680156112875780820380516001836020036101000a031916815260200191505b509a505050505050505050505060405180910390f35b6112a56131ed565b6040518060e0016040528060025481526020018381526020013373ffffffffffffffffffffffffffffffffffffffff1681526020016040518060400160405280600e81526020017f4e6f742056616363696e6174656400000000000000000000000000000000000081525081526020016000151581526020016000815260200160011515815250905080600a6000600254815260200190815260200160002060008201518160000155602082015181600101908051906020019061136a929190613244565b5060408201518160020160006101000a81548173ffffffffffffffffffffffffffffffffffffffff021916908373ffffffffffffffffffffffffffffffffffffffff16021790555060608201518160030190805190602001906113ce929190613244565b5060808201518160040160006101000a81548160ff02191690831515021790555060a0820151816005015560c08201518160060160006101000a81548160ff02191690831515021790555090505080600960003373ffffffffffffffffffffffffffffffffffffffff1673ffffffffffffffffffffffffffffffffffffffff168152602001908152602001600020600082015181600001556020820151816001019080519060200190611482929190613244565b5060408201518160020160006101000a81548173ffffffffffffffffffffffffffffffffffffffff021916908373ffffffffffffffffffffffffffffffffffffffff16021790555060608201518160030190805190602001906114e6929190613244565b5060808201518160040160006101000a81548160ff02191690831515021790555060a0820151816005015560c08201518160060160006101000a81548160ff0219169083151502179055509050506002600081548092919060010191905055505050565b6115526132c4565b60405180610100016040528060035481526020018681526020013373ffffffffffffffffffffffffffffffffffffffff1681526020016000151581526020018581526020016000815260200184815260200183815250905080600760003373ffffffffffffffffffffffffffffffffffffffff1673ffffffffffffffffffffffffffffffffffffffff168152602001908152602001600020600082015181600001556020820151816001019080519060200190611610929190613244565b5060408201518160020160006101000a81548173ffffffffffffffffffffffffffffffffffffffff021916908373ffffffffffffffffffffffffffffffffffffffff16021790555060608201518160020160146101000a81548160ff0219169083151502179055506080820151816003019080519060200190611694929190613244565b5060a0820151816004015560c0820151816005015560e08201518160060155905050806008600060035481526020019081526020016000206000820151816000015560208201518160010190805190602001906116f2929190613244565b5060408201518160020160006101000a81548173ffffffffffffffffffffffffffffffffffffffff021916908373ffffffffffffffffffffffffffffffffffffffff16021790555060608201518160020160146101000a81548160ff0219169083151502179055506080820151816003019080519060200190611776929190613244565b5060a0820151816004015560c0820151816005015560e082015181600601559050506003600081548092919060010191905055505050505050565b6000600760003373ffffffffffffffffffffffffffffffffffffffff1673ffffffffffffffffffffffffffffffffffffffff16815260200190815260200160002090508060020160009054906101000a900473ffffffffffffffffffffffffffffffffffffffff1673ffffffffffffffffffffffffffffffffffffffff163373ffffffffffffffffffffffffffffffffffffffff16146118b9576040517f08c379a00000000000000000000000000000000000000000000000000000000081526004018080602001828103825260168152602001807f596f7520617265206e6f7420617574686f72697365640000000000000000000081525060200191505060405180910390fd5b60011515600860008360000154815260200190815260200160002060020160149054906101000a900460ff1615151461193d576040517f08c379a00000000000000000000000000000000000000000000000000000000081526004018080602001828103825260258152602001806134a56025913960400191505060405180910390fd5b6000600a600084815260200190815260200160002090508160030181600301908054600181600116156101000203166002900461197b929190613321565b50600181600501540181600501819055508060050154600960008360020160009054906101000a900473ffffffffffffffffffffffffffffffffffffffff1673ffffffffffffffffffffffffffffffffffffffff1673ffffffffffffffffffffffffffffffffffffffff16815260200190815260200160002060050181905550600281600501541415611aa5576001600960008360020160009054906101000a900473ffffffffffffffffffffffffffffffffffffffff1673ffffffffffffffffffffffffffffffffffffffff1673ffffffffffffffffffffffffffffffffffffffff16815260200190815260200160002060040160006101000a81548160ff02191690831515021790555060018160040160006101000a81548160ff0219169083151502179055505b600182600401540382600401819055506000600b600086815260200190815260200160002060080160006101000a81548160ff02191690831515021790555050505050565b6006602052806000526040600020600091509050806000015490806001018054600181600116156101000203166002900480601f016020809104026020016040519081016040528092919081815260200182805460018160011615610100020316600290048015611b9c5780601f10611b7157610100808354040283529160200191611b9c565b820191906000526020600020905b815481529060010190602001808311611b7f57829003601f168201915b5050505050908060020160009054906101000a900473ffffffffffffffffffffffffffffffffffffffff1690806003018054600181600116156101000203166002900480601f016020809104026020016040519081016040528092919081815260200182805460018160011615610100020316600290048015611c605780601f10611c3557610100808354040283529160200191611c60565b820191906000526020600020905b815481529060010190602001808311611c4357829003601f168201915b5050505050908060040154908060050154908060060154908060070160009054906101000a900460ff16905088565b60035481565b600060066000600560003373ffffffffffffffffffffffffffffffffffffffff1673ffffffffffffffffffffffffffffffffffffffff16815260200190815260200160002060000154815260200190815260200160002090508181600401540181600401819055505050565b6008602052806000526040600020600091509050806000015490806001018054600181600116156101000203166002900480601f016020809104026020016040519081016040528092919081815260200182805460018160011615610100020316600290048015611db35780601f10611d8857610100808354040283529160200191611db3565b820191906000526020600020905b815481529060010190602001808311611d9657829003601f168201915b5050505050908060020160009054906101000a900473ffffffffffffffffffffffffffffffffffffffff16908060020160149054906101000a900460ff1690806003018054600181600116156101000203166002900480601f016020809104026020016040519081016040528092919081815260200182805460018160011615610100020316600290048015611e8a5780601f10611e5f57610100808354040283529160200191611e8a565b820191906000526020600020905b815481529060010190602001808311611e6d57829003601f168201915b5050505050908060040154908060050154908060060154905088565b611eae6133a8565b60405180610100016040528060015481526020018681526020013373ffffffffffffffffffffffffffffffffffffffff1681526020018581526020016000815260200184815260200183815260200160011515815250905080600560003373ffffffffffffffffffffffffffffffffffffffff1673ffffffffffffffffffffffffffffffffffffffff168152602001908152602001600020600082015181600001556020820151816001019080519060200190611f6c929190613244565b5060408201518160020160006101000a81548173ffffffffffffffffffffffffffffffffffffffff021916908373ffffffffffffffffffffffffffffffffffffffff1602179055506060820151816003019080519060200190611fd0929190613244565b506080820151816004015560a0820151816005015560c0820151816006015560e08201518160070160006101000a81548160ff0219169083151502179055509050508060066000600154815260200190815260200160002060008201518160000155602082015181600101908051906020019061204e929190613244565b5060408201518160020160006101000a81548173ffffffffffffffffffffffffffffffffffffffff021916908373ffffffffffffffffffffffffffffffffffffffff16021790555060608201518160030190805190602001906120b2929190613244565b506080820151816004015560a0820151816005015560c0820151816006015560e08201518160070160006101000a81548160ff0219169083151502179055509050506001600081548092919060010191905055505050505050565b60001515600960003373ffffffffffffffffffffffffffffffffffffffff1673ffffffffffffffffffffffffffffffffffffffff16815260200190815260200160002060040160009054906101000a900460ff161515146121d6576040517f08c379a000000000000000000000000000000000000000000000000000000000815260040180806020018281038252601b8152602001807f596f752061726520616c72656164792076616363696e6174656421000000000081525060200191505060405180910390fd5b6001600760008473ffffffffffffffffffffffffffffffffffffffff1673ffffffffffffffffffffffffffffffffffffffff16815260200190815260200160002060040154101561228f576040517f08c379a00000000000000000000000000000000000000000000000000000000081526004018080602001828103825260108152602001807f4e6f7420656e6f7567682073746f636b0000000000000000000000000000000081525060200191505060405180910390fd5b612297613405565b60405180610120016040528060045481526020018681526020013373ffffffffffffffffffffffffffffffffffffffff168152602001600960003373ffffffffffffffffffffffffffffffffffffffff1673ffffffffffffffffffffffffffffffffffffffff1681526020019081526020016000206000015481526020018473ffffffffffffffffffffffffffffffffffffffff1681526020018581526020018381526020016001600960003373ffffffffffffffffffffffffffffffffffffffff1673ffffffffffffffffffffffffffffffffffffffff1681526020019081526020016000206005015401815260200160001515815250905080600b600060045481526020019081526020016000206000820151816000015560208201518160010190805190602001906123cd929190613244565b5060408201518160020160006101000a81548173ffffffffffffffffffffffffffffffffffffffff021916908373ffffffffffffffffffffffffffffffffffffffff1602179055506060820151816003015560808201518160040160006101000a81548173ffffffffffffffffffffffffffffffffffffffff021916908373ffffffffffffffffffffffffffffffffffffffff16021790555060a0820151816005015560c082015181600601908051906020019061248c929190613244565b5060e082015181600701556101008201518160080160006101000a81548160ff0219169083151502179055509050506004600081548092919060010191905055508273ffffffffffffffffffffffffffffffffffffffff166108fc349081150290604051600060405180830381858888f19350505050158015612513573d6000803e3d6000fd5b505050505050565b60025481565b6000809054906101000a900473ffffffffffffffffffffffffffffffffffffffff1673ffffffffffffffffffffffffffffffffffffffff163373ffffffffffffffffffffffffffffffffffffffff161461257a57600080fd5b600060086000838152602001908152602001600020905060018160020160146101000a81548160ff0219169083151502179055505050565b600a602052806000526040600020600091509050806000015490806001018054600181600116156101000203166002900480601f0160208091040260200160405190810160405280929190818152602001828054600181600116156101000203166002900480156126645780601f1061263957610100808354040283529160200191612664565b820191906000526020600020905b81548152906001019060200180831161264757829003601f168201915b5050505050908060020160009054906101000a900473ffffffffffffffffffffffffffffffffffffffff1690806003018054600181600116156101000203166002900480601f0160208091040260200160405190810160405280929190818152602001828054600181600116156101000203166002900480156127285780601f106126fd57610100808354040283529160200191612728565b820191906000526020600020905b81548152906001019060200180831161270b57829003601f168201915b5050505050908060040160009054906101000a900460ff16908060050154908060060160009054906101000a900460ff16905087565b60608060008060009054906101000a900473ffffffffffffffffffffffffffffffffffffffff1673ffffffffffffffffffffffffffffffffffffffff163373ffffffffffffffffffffffffffffffffffffffff16146127bc57600080fd5b600a6000858152602001908152602001600020600101600a6000868152602001908152602001600020600301600a600087815260200190815260200160002060040160009054906101000a900460ff16828054600181600116156101000203166002900480601f0160208091040260200160405190810160405280929190818152602001828054600181600116156101000203166002900480156128a15780601f10612876576101008083540402835291602001916128a1565b820191906000526020600020905b81548152906001019060200180831161288457829003601f168201915b50505050509250818054600181600116156101000203166002900480601f01602080910402602001604051908101604052809291908181526020018280546001816001161561010002031660029004801561293d5780601f106129125761010080835404028352916020019161293d565b820191906000526020600020905b81548152906001019060200180831161292057829003601f168201915b505050505091509250925092509193909250565b60008060009054906101000a900473ffffffffffffffffffffffffffffffffffffffff16905090565b6007602052806000526040600020600091509050806000015490806001018054600181600116156101000203166002900480601f016020809104026020016040519081016040528092919081815260200182805460018160011615610100020316600290048015612a2c5780601f10612a0157610100808354040283529160200191612a2c565b820191906000526020600020905b815481529060010190602001808311612a0f57829003601f168201915b5050505050908060020160009054906101000a900473ffffffffffffffffffffffffffffffffffffffff16908060020160149054906101000a900460ff1690806003018054600181600116156101000203166002900480601f016020809104026020016040519081016040528092919081815260200182805460018160011615610100020316600290048015612b035780601f10612ad857610100808354040283529160200191612b03565b820191906000526020600020905b815481529060010190602001808311612ae657829003601f168201915b5050505050908060040154908060050154908060060154905088565b612b276133a8565b60066000600560008673ffffffffffffffffffffffffffffffffffffffff1673ffffffffffffffffffffffffffffffffffffffff1681526020019081526020016000206000015481526020019081526020016000206040518061010001604052908160008201548152602001600182018054600181600116156101000203166002900480601f016020809104026020016040519081016040528092919081815260200182805460018160011615610100020316600290048015612c2b5780601f10612c0057610100808354040283529160200191612c2b565b820191906000526020600020905b815481529060010190602001808311612c0e57829003601f168201915b505050505081526020016002820160009054906101000a900473ffffffffffffffffffffffffffffffffffffffff1673ffffffffffffffffffffffffffffffffffffffff1673ffffffffffffffffffffffffffffffffffffffff168152602001600382018054600181600116156101000203166002900480601f016020809104026020016040519081016040528092919081815260200182805460018160011615610100020316600290048015612d235780601f10612cf857610100808354040283529160200191612d23565b820191906000526020600020905b815481529060010190602001808311612d0657829003601f168201915b505050505081526020016004820154815260200160058201548152602001600682015481526020016007820160009054906101000a900460ff16151515158152505090508060800151821115612de1576040517f08c379a000000000000000000000000000000000000000000000000000000000815260040180806020018281038252601d8152602001807f4e6f7420656e6f756768207175616e7469747920617661696c61626c6500000081525060200191505060405180910390fd5b818160800151038160800181815250506000600760003373ffffffffffffffffffffffffffffffffffffffff1673ffffffffffffffffffffffffffffffffffffffff16815260200190815260200160002090508281600401540181600401819055508373ffffffffffffffffffffffffffffffffffffffff166108fc349081150290604051600060405180830381858888f19350505050158015612e89573d6000803e3d6000fd5b5050505050565b60015481565b6009602052806000526040600020600091509050806000015490806001018054600181600116156101000203166002900480601f016020809104026020016040519081016040528092919081815260200182805460018160011615610100020316600290048015612f485780601f10612f1d57610100808354040283529160200191612f48565b820191906000526020600020905b815481529060010190602001808311612f2b57829003601f168201915b5050505050908060020160009054906101000a900473ffffffffffffffffffffffffffffffffffffffff1690806003018054600181600116156101000203166002900480601f01602080910402602001604051908101604052809291908181526020018280546001816001161561010002031660029004801561300c5780601f10612fe15761010080835404028352916020019161300c565b820191906000526020600020905b815481529060010190602001808311612fef57829003601f168201915b5050505050908060040160009054906101000a900460ff16908060050154908060060160009054906101000a900460ff16905087565b60045481565b6005602052806000526040600020600091509050806000015490806001018054600181600116156101000203166002900480601f0160208091040260200160405190810160405280929190818152602001828054600181600116156101000203166002900480156130fa5780601f106130cf576101008083540402835291602001916130fa565b820191906000526020600020905b8154815290600101906020018083116130dd57829003601f168201915b5050505050908060020160009054906101000a900473ffffffffffffffffffffffffffffffffffffffff1690806003018054600181600116156101000203166002900480601f0160208091040260200160405190810160405280929190818152602001828054600181600116156101000203166002900480156131be5780601f10613193576101008083540402835291602001916131be565b820191906000526020600020905b8154815290600101906020018083116131a157829003601f168201915b5050505050908060040154908060050154908060060154908060070160009054906101000a900460ff16905088565b6040518060e001604052806000815260200160608152602001600073ffffffffffffffffffffffffffffffffffffffff16815260200160608152602001600015158152602001600081526020016000151581525090565b828054600181600116156101000203166002900490600052602060002090601f016020900481019282601f1061328557805160ff19168380011785556132b3565b828001600101855582156132b3579182015b828111156132b2578251825591602001919060010190613297565b5b5090506132c0919061347f565b5090565b6040518061010001604052806000815260200160608152602001600073ffffffffffffffffffffffffffffffffffffffff168152602001600015158152602001606081526020016000815260200160008152602001600081525090565b828054600181600116156101000203166002900490600052602060002090601f016020900481019282601f1061335a5780548555613397565b8280016001018555821561339757600052602060002091601f016020900482015b8281111561339657825482559160010191906001019061337b565b5b5090506133a4919061347f565b5090565b6040518061010001604052806000815260200160608152602001600073ffffffffffffffffffffffffffffffffffffffff168152602001606081526020016000815260200160008152602001600081526020016000151581525090565b6040518061012001604052806000815260200160608152602001600073ffffffffffffffffffffffffffffffffffffffff16815260200160008152602001600073ffffffffffffffffffffffffffffffffffffffff1681526020016000815260200160608152602001600081526020016000151581525090565b6134a191905b8082111561349d576000816000905550600101613485565b5090565b9056fe486f73706974616c206e6f7420617574686f726973656420627920676f7665726e6d656e74a265627a7a723158208169431ebe94364c9a0b740719aa92a2cff12667d158788602371859fc0185f664736f6c63430005100032",
  "source": "// SPDX-License-Identifier: MIT\n\npragma solidity >=0.5.0;\n\ncontract VacSeen {\n\n    // ---GOVERNMENT CONTROL---\n    // Government\n    address government;\n    \n    // Set the contract creator as government\n    constructor() public {\n        government = msg.sender;\n    }\n    \n    // Returrn the government's public addrerss\n    function getGovernment() public view returns (address) {\n        return government;\n    }\n    \n    // Get status of citizen - only government can access this data\n    function getCitizenStatus(uint index) public view onlyGovernment returns (string memory, string memory, bool) {\n        return (Citizens[index].name, Citizens[index].vaccine, Citizens[index].vaccinated);\n    }\n    \n    // Grant hospital permission to vaccinate\n    function validateHospital(uint hospitalId) public onlyGovernment {\n        Hospital storage hospital = HospitalsID[hospitalId]; // Fetch associated hospital\n        hospital.isValidated = true; // Validate hospital\n    }\n    \n    // Custom modifier to enable only the government to access certain data\n    modifier onlyGovernment() {\n        require(msg.sender == government);\n        _;\n    }\n    // ---END GOVERNMENT CONTROL---\n    \n    \n    \n    // ---VARIABLES---\n    // Variables to keep track of instance counts\n    uint public manufacturerCount;\n    uint public citizenCount;\n    uint public hospitalCount;\n    uint public appointmentCount;\n    \n    // Mappings to keep track of structs\n    mapping(address => Manufacturer) public Manufacturers; // Mapping that holds records of all manufacturers\n    mapping(uint => Manufacturer) public ManufacturersID; // Mapping that holds records of all manufacturers by id\n    mapping(address => Hospital) public Hospitals; // Mapping that holds records of all hospitals\n    mapping(uint => Hospital) public HospitalsID; // Mapping that holds records of all hospitals by id\n    mapping(address => Citizen) public CitizensAddress; // Mapping that holds records of all citizens by address\n    mapping(uint => Citizen) public Citizens; // Mapping that holds records of all citizens \n    mapping(uint => Appointment) Appointments; // Mapping that holds records of all appointments \n\n    // Structs for Hospital, Manufacturers, Citizens and Appointments\n    struct Hospital {\n        uint id;\n        string name;\n        address payable owner;\n        bool isValidated;\n        string vaccine;\n        uint stock;\n        uint nabhID;\n        uint doseCost;\n    }\n    \n    struct Manufacturer {\n        uint id;\n        string name;\n        address payable owner;\n        string vaccine;\n        uint capacity;\n        uint gstNo;\n        uint doseCost;\n        bool isCreated;\n    }\n    \n    struct Citizen {\n        uint id;\n        string name;\n        address publicAddress;\n        string vaccine;\n        bool vaccinated;\n        uint doses;\n        bool isCreated;\n    }\n    \n    struct Appointment {\n        uint id;\n        string date;\n        address citizen;\n        uint citizenId;\n        address payable hospital;\n        uint hospitalId;\n        string vaccine;\n        uint doseCount;\n        bool vaccinated;\n    }\n    // ---END VARIABLES---\n    \n    \n    \n    // ---CITIZEN METHODS---\n    // Citizen register themselves for vaccination\n    function registerCitizen(string memory name) public {\n        Citizen memory citizen = Citizen(citizenCount, name, msg.sender, \"Not Vaccinated\", false, 0, true); // Create new citizen \n        Citizens[citizenCount] = citizen; // Pass instance to mapping\n        CitizensAddress[msg.sender] = citizen; // Pass instance to mapping\n        citizenCount++; // Increment identifier for subsequent creation\n    }\n    \n    // Citizens book vaccination slot\n    function bookAppointment(string memory date, uint hospitalID, address payable hospitalAddress, string memory vaccine) public payable {\n        require(CitizensAddress[msg.sender].vaccinated == false, \"You are already vaccinated!\");\n        require(Hospitals[hospitalAddress].stock >= 1, \"Not enough stock\");\n        Appointment memory appointment = Appointment(appointmentCount, date, msg.sender, CitizensAddress[msg.sender].id, hospitalAddress, \n        hospitalID, vaccine, CitizensAddress[msg.sender].doses+1, false); // Create new appointment\n        Appointments[appointmentCount] = appointment; // Pass instance to mapping\n        appointmentCount++; // Increment identifier for subsequent creation\n        \n        hospitalAddress.transfer(msg.value); // Pay for vaccine\n    }\n    // ---END CITIZEN METHODS---\n    \n    \n    \n    // ---HOSPITAL METHODS---\n    // Register hospital\n    function registerHospital(string memory name, string memory vaccine, uint nabhID, uint doseCost) public {\n        Hospital memory hospital = Hospital(hospitalCount, name, msg.sender, false, vaccine, 0, nabhID, doseCost); // Create new instance variable \n        Hospitals[msg.sender] = hospital; // Pass instance to mapping \n        HospitalsID[hospitalCount] = hospital; // Pass instance to mapping \n        hospitalCount++; // Increment identifier for subsequent creation\n    }\n    \n    // Citizen vaccinated at hospital - only hospitals can do this\n    function vaccinateCitizen(uint appointmentId, uint citizenID) public {\n        Hospital storage hospital = Hospitals[msg.sender]; // Fetch associated hospital\n        \n        require(msg.sender == hospital.owner, \"You are not authorised\"); // Only authorised hospitals can vaccinate people\n        require(HospitalsID[hospital.id].isValidated == true , \"Hospital not authorised by government\"); // Only authorised hospitals can vaccinate people\n        \n        Citizen storage citizen = Citizens[citizenID]; // Fetch associated citizen\n        citizen.vaccine = hospital.vaccine; // Set vaccine\n        citizen.doses = citizen.doses + 1; // Increment doses\n        CitizensAddress[citizen.publicAddress].doses = citizen.doses; // Increment doses\n        \n        // Mark citizen as vaccinated if this is second dose\n        if(citizen.doses == 2){\n            CitizensAddress[citizen.publicAddress].vaccinated = true;\n            citizen.vaccinated = true;\n        }\n        \n        hospital.stock = hospital.stock - 1; // Reduce vaccine from stock\n        \n        Appointments[appointmentId].vaccinated = false; // Set appointment as completed\n    }\n    \n    // Place vaccine order\n    function placeVaccineOrder(address payable manufacturerAddress, uint quantity) payable public {\n        Manufacturer memory manufacturer = ManufacturersID[Manufacturers[manufacturerAddress].id];\n        require(quantity <= manufacturer.capacity, \"Not enough quantity available\");\n        manufacturer.capacity = manufacturer.capacity - quantity;\n\n        Hospital storage hospital = Hospitals[msg.sender];\n        hospital.stock = hospital.stock + quantity;\n        \n        manufacturerAddress.transfer(msg.value); // Pay the manufacturer\n    }\n    // ---END HOSPITAL METHODS---\n    \n    \n    \n    /// ---MANUFACTURER METHODS---\n    // Register hospital\n    function registerManufacturer(string memory name, string memory vaccine, uint gstNo, uint doseCost) public {\n        Manufacturer memory manufacturer = Manufacturer(manufacturerCount, name, msg.sender, vaccine, 0, gstNo, doseCost, true); // Create new instance variable \n        Manufacturers[msg.sender] = manufacturer; // Pass instance to mapping \n        ManufacturersID[manufacturerCount] = manufacturer; // Pass instance to mapping \n        manufacturerCount++; // Increment identifier for subsequent creation\n    }\n    \n    function addSupply(uint supply) public {\n        Manufacturer storage manufacturer = ManufacturersID[Manufacturers[msg.sender].id];\n        manufacturer.capacity = manufacturer.capacity + supply;\n    }\n    /// ---END MANUFACTURER METHODS---\n\n}",
  "sourcePath": "/Users/skhiearth/Desktop/VacSeen/VacSeen/src/contracts/VacSeen.sol",
  "compiler": {
    "name": "solc",
    "version": "0.5.16+commit.9c3226ce.Emscripten.clang"
  },
  "schemaVersion": "3.3.4",
  "updatedAt": "2021-05-21T17:08:57.970Z",
  "networkType": "ethereum",
  "devdoc": {
    "methods": {}
  },
  "userdoc": {
    "methods": {
      "registerManufacturer(string,string,uint256,uint256)": {
        "notice": "---MANUFACTURER METHODS---"
      }
    }
  }
}